:020000040C02EC
:1000000049443D444F4F525F4543555F584D43343B
:10001000353030000000000000000000000000004B
:1000200056657273696F6E3D302E302E30000000C1
:1000300000000000000000000000000000000000C0
:10004000446576656C6F706572733D536D69726E51
:100050006F7620442E412E3B204B6172626F767387
:100060006B697920442E412E000000000000000042
:100070000000000000000000000000000000000080
:100080005075626C69736865723D504B4453000053
:100090000000000000000000000000000000000060
:1000A0000000000000000000000000000000000050
:1000B0000000000000000000000000000000000040
:1000C0004C6963656E73653D000000000000000030
:1000D0000000000000000000000000000000000020
:1000E0000000000000000000000000000000000010
:1000F0000000000000000000000000000000000000
:10010000436F6E74616374733D0000000000000073
:1001100000000000000000000000000000000000DF
:1001200000000000000000000000000000000000CF
:1001300000000000000000000000000000000000BF
:1001400000000000000000000000000000000000AF
:10015000000000000000000000000000000000009F
:10016000000000000000000000000000000000008F
:10017000000000000000000000000000000000007F
:1001800048617264576172653D0000000000000024
:10019000000000000000000000000000000000005F
:1001A000000000000000000000000000000000004F
:1001B000000000000000000000000000000000003F
:1001C000000000000000000000000000000000002F
:1001D000000000000000000000000000000000001F
:1001E000000000000000000000000000000000000F
:1001F00000000000000000000000000000000000FF
:100200004465736372697074696F6E3D000000002D
:1002100000000000000000000000000000000000DE
:1002200000000000000000000000000000000000CE
:1002300000000000000000000000000000000000BE
:1002400000000000000000000000000000000000AE
:10025000000000000000000000000000000000009E
:10026000000000000000000000000000000000008E
:10027000000000000000000000000000000000007E
:10028000000000000000000000000000000000006E
:10029000000000000000000000000000000000005E
:1002A000000000000000000000000000000000004E
:1002B000000000000000000000000000000000003E
:1002C000000000000000000000000000000000002E
:1002D000000000000000000000000000000000001E
:1002E000000000000000000000000000000000000E
:1002F00000000000000000000000000000000000FE
:1003000045787472613D00000000000000000000AC
:1003100000000000000000000000000000000000DD
:1003200000000000000000000000000000000000CD
:1003300000000000000000000000000000000000BD
:1003400000000000000000000000000000000000AD
:10035000000000000000000000000000000000009D
:10036000000000000000000000000000000000008D
:10037000000000000000000000000000000000007D
:10038000000000000000000000000000000000006D
:10039000000000000000000000000000000000005D
:1003A000000000000000000000000000000000004D
:1003B000000000000000000000000000000000003D
:1003C000000000000000000000000000000000002D
:1003D000000000000000000000000000000000001D
:1003E000000000000000000000000000000000000D
:1003F00000000000000000000000000000000000FD
:100400000008001001060208B1060208B106020841
:10041000B1060208B1060208B10602080000000099
:10042000000000000000000000000000B10602080B
:10043000B106020800000000B10602086D90020833
:10044000B1060208B1060208B1060208B1060208A8
:10045000B1060208B1060208B1060208B106020898
:10046000B1060208000000000000000000000000CB
:10047000B10602080000000031200208B10602089F
:10048000E9AD0208B1060208B1060208B106020889
:10049000B1060208B1060208B1060208B106020858
:1004A000B1060208B1060208B1060208B106020848
:1004B000B1060208B1060208B1060208B106020838
:1004C000B1060208B1060208B1060208B106020828
:1004D000B1060208B1060208B1060208B106020818
:1004E000B1060208B1060208B1060208B106020808
:1004F000B1060208B1060208B1060208B1060208F8
:10050000B1060208B1060208B1060208B1060208E7
:10051000B1060208B1060208B1060208B1060208D7
:1005200079AD0208A1AD020859300208393002083D
:10053000890B0010B1060208B1060208B1060208D4
:10054000B1060208B1060208B1060208B1060208A7
:10055000290D0010F50D0010B1060208B1060208C1
:10056000000000000000000000000000000000008B
:10057000ED3D020879AE0208A1AF0208113D020864
:10058000B10602086D3D02081D3C0208B1060208D2
:10059000B1060208B1060208B1060208B106020857
:1005A000B1060208B1060208B1060208B106020847
:1005B000B1060208B1060208B1060208B106020837
:1005C000B1060208B1060208B1060208B106020827
:1005D000B1060208B1060208B106020800000000D8
:1005E000B1060208B1060208B1060208B106020807
:1005F000B106020800000000B10602080000000079
:10060000DFF88CD023488047234C244DAC4209DAD4
:1006100021686268A368043BA2BFC858D050FAE7BB
:100620000C34F3E71E4B1F4CA34208DA19685A68D2
:100630000020043AA4BF8850FBE70833F4E71A48C7
:1006400080471A4880470000B4C3020C0000002015
:10065000F8050000ACC9020C0000003000000000EA
:10066000B4C3020CC011001000000000F4B9020C69
:1006700000080010C0090000F80500201C0B000055
:100680000000003000000000C01100100000000059
:1006900000080010B506020848060208780602089D
:1006A0007806020890060208CDB0020835B00208AC
:1006B000FEE7000098B500AF064A4FF0005314461D
:1006C0000FCB84E80F0009F029FB09F095FB00BF70
:1006D00098BD00BFC4FF002080B584B000AF2F4B91
:1006E000DB6803F48033002B3ED02D4BDB6803F036
:1006F0000103002B02D02B4BFB6002E009F072FBE0
:10070000F860274B1B6803F00403002B20D0244B18
:100710009B681B0E03F00F0301337B60204B9B682B
:100720001B0A03F07F0301333B601D4B9B681B0CCE
:1007300003F07F030133BB607B68BA6802FB03F3FD
:10074000FA68B2FBF3F23B6802FB03F3FB600DE0D7
:10075000134B9B6803F07F030133BB60FA68BB68EF
:10076000B2FBF3F3FB6001E00E4BFB600B4BDB686D
:10077000DBB20133FA68B2FBF3F3FB60074B1B6992
:1007800003F001030133FA68B2FBF3F3FB60064A9E
:10079000FB68136000BF1037BD4680BD00460050A7
:1007A0001047005000366E01C0FF002080B483B0B7
:1007B00000AF78607B68D3F8043143F400727B6843
:1007C000C3F8042100BF0C37BD465DF8047B7047B9
:1007D00080B483B000AF786039603A687B68C3F852
:1007E000102100BF0C37BD465DF8047B704780B414
:1007F00085B000AFF860B9607A607B681968FB6803
:10080000BA68A03243F8221000BF1437BD465DF825
:10081000047B704780B483B000AF786039607B6838
:100820003A68C03253F822309BB218460C37BD46A6
:100830005DF8047B704780B584B000AF78603960A4
:1008400039687868FFF7E6FF0346FB81FB891846A5
:100850001037BD4680BD000080B500AF0D4A0521B0
:100860000D4808F033F90D4A05210B48FFF7BFFF8B
:100870000B4B19680848FFF7ABFF41F605720021E2
:10088000054808F02BF804220521034808F084F9F4
:1008900000BF80BD8000002000500040F80500200F
:1008A0007C00002080B586B000AF00237B610F2361
:1008B000FB6000237B6100233B6119E01348FFF7D5
:1008C00075FF00237B6002E07B6801337B607B68FF
:1008D000FA689A42F8D805210C48FFF7ACFF0346A6
:1008E000BB607A69BB6813447B613B6901333B6140
:1008F0003B690F2BE2D97B691B09BB60BB68044ACB
:10090000136000BF1837BD4680BD00BF00500040D7
:100910002401002080B483B000AF7860064BDA6C0D
:100920007B68DB4304491340CB6400BF0C37BD46F2
:100930005DF8047B704700BF0040005080B483B076
:1009400000AF78600B46FB70FB7801229A407B6811
:100950005A6000BF0C37BD465DF8047B704780B419
:1009600083B000AF78600B46FB70FB784FF48032A9
:100970009A407B685A6000BF0C37BD465DF8047B27
:10098000704780B500AF4FF48070FFF7C3FF00BF22
:1009900080BD80B483B000AF78600B46FB707B688D
:1009A000DA6CFB781A437B68DA6400BF0C37BD460B
:1009B0005DF8047B704780B483B000AF78600B466D
:1009C000FB707B68DA6CFB78DB431A407B68DA6487
:1009D00000BF0C37BD465DF8047B704780B500AFA3
:1009E00000F0ACFA00F0E0FA00F028FB034B5B8A61
:1009F00001339AB2024B1A8400BF80BD6800002008
:100A0000D000002080B500AF00F01CF8FFF7B9FF60
:100A100000BF80BD80B500AF084B5B7B012B03D1CD
:100A20000B210748FFF78AFF044B5B7B022B03D1A6
:100A30000B210348FFF793FF00BF80BDD0000020CB
:100A40000082024880B500AF084B5B7B012B03D1CD
:100A50000B210748FFF783FF044B5B7B022B03D17D
:100A60000B210348FFF76AFF00BF80BDD0000020C4
:100A70000082024880B483B000AF0346FB7197F94F
:100A80000730002B0CDBFB7903F01F02074997F9B5
:100A900007305B09012000FA02F2603341F823209D
:100AA00000BF0C37BD465DF8047B704700E100E0F5
:100AB00080B483B000AF78607B680122DA6000BF49
:100AC0000C37BD465DF8047B704780B483B000AF3F
:100AD00078607B6801221A6100BF0C37BD465DF863
:100AE000047B704780B483B000AF78607B680222DB
:100AF0001A6100BF0C37BD465DF8047B704780B4B7
:100B000083B000AF78607B6801229A6000BF0C3729
:100B1000BD465DF8047B704780B483B000AF786059
:100B20007B680322DA6000BF0C37BD465DF8047BAA
:100B3000704780B483B000AF78600B46FB707B6871
:100B40005A6AFB7822FA03F303F0010318460C37C4
:100B5000BD465DF8047B704780B400AF124B0022A5
:100B600083F82920104B0022DA610F4B00221A6013
:100B70000D4B00225A600C4B00229A600A4B002257
:100B8000DA60094B00221A61074B00225A61064BBA
:100B90005B6A054A9361044B00221A6200BFBD469E
:100BA0005DF8047B704700BFF800002080B500AFFF
:100BB00000F010FB00F0C4F800F028FA00BF80BD80
:100BC00080B500AFFFF7C8FF0648FFF798FF06485B
:100BD000FFF788FF0548FFF785FF0448FFF768FF28
:100BE00000BF80BD0080024000C1004000C2004044
:100BF00080B500AF0648FFF78FFF4420FFF73AFFAC
:100C00000448FFF762FF0448FFF75FFF00BF80BDA5
:100C10000080024000C1004000C2004080B584B0A6
:100C200000AF3B4600221A605A609A6003211148C7
:100C3000FFF77FFF03463B6002210E48FFF779FF75
:100C400003467B603A687B685B001343FB600121CD
:100C50000848FFF76EFF0346BB60BB689B00FA685D
:100C60001343FB60FB6803F0070318461037BD46CB
:100C700080BD00BF0081024880B483B000AF7860BF
:100C80000B46FB70FB7801229A407B68DA6000BF5C
:100C90000C37BD465DF8047B704780B483B000AF6D
:100CA00078600B467B807A887B685A6300BF0C377C
:100CB000BD465DF8047B704780B483B000AF7860B8
:100CC0000B467B807A887B68DA6300BF0C37BD46B1
:100CD0005DF8047B704780B483B000AF7860396002
:100CE0007B683A681A6100BF0C37BD465DF8047B2B
:100CF000704780B483B000AF78607B685B6943F471
:100D000080327B685A6100BF0C37BD465DF8047BBA
:100D1000704780B483B000AF78600B46FB707B688F
:100D2000D3F8A420FB78012101FA03F31A437B686E
:100D3000C3F8A42000BF0C37BD465DF8047B7047A4
:100D400080B500AF0021044806F05AFD00F006F817
:100D500000F03EF800BF80BD00C0004080B500AF8D
:100D60001649174806F087FD164B1B88194614488C
:100D7000FFF7A2FF134B5B8819461148FFF78DFF61
:100D800001211148FFF7A7FF104A01210C4806F086
:100D9000A5FF012201210A4806F0CBFD00210A48E7
:100DA000FFF76AFF00220021054807F031F8002113
:100DB0000348FFF7AEFF00BF80BD00BF400000202A
:100DC00000C100404C00002000C00040480000204E
:100DD00080B500AF0C490D4806F084FD05210B4895
:100DE00006F0F8FF0948FFF784FF094A0121074888
:100DF00006F074FF0121054806F086FE0121054832
:100E0000FFF73AFF00BF80BD5000002000C2004045
:100E10005800002000C0004080B483B000AF78606C
:100E20000B46FB70FB7801229A407B68DA6000BFBA
:100E30000C37BD465DF8047B704780B483B000AFCB
:100E4000786039607B683A681A6100BF0C37BD462C
:100E50005DF8047B704780B483B000AF78600B46C8
:100E6000FB707B68D3F8A420FB78012101FA03F31F
:100E70001A437B68C3F8A42000BF0C37BD465DF859
:100E8000047B704780B582B000AF78600B46FB7082
:100E90001346BB70BA78FB781946786807F0A6F954
:100EA000FB7819467868FFF7D6FF00BF0837BD46C4
:100EB00080BD000080B584B000AF7860194A7B68BF
:100EC00052F82330FB60174A7B6813440C331B78BD
:100ED00019461548FFF7A0FF1449F86807F061F8B4
:100EE000104B5B8A1946F86807F059F9104A01213E
:100EF000F86807F0EAF801220121F86807F08BF89A
:100F00000C4A0221F86807F0E0F802220221F86892
:100F100007F0AFF80849F86807F0D2F900BF1037BA
:100F2000BD4680BD680000200000024078B1020884
:100F300070B1020874B102085C00002080B582B074
:100F400000AF0021164807F00DF800237B6005E094
:100F50007868FFF7AFFF7B6801337B607B68022B0B
:100F6000F6D9104B1B68002201211846FFF78AFFB3
:100F70000C4B5B68022205211846FFF783FF094BE3
:100F80005B68084A128A0121184607F017F940F2F7
:100F900011110348FFF751FF00BF0837BD4680BD60
:100FA000000002406800002080B500AF0F4A092110
:100FB0000F4805F02BFB0F4A0E210F4805F026FBCA
:100FC0000E4A0A210A4805F021FB0D4A0F210A4862
:100FD00005F01CFB0B4A0B21054805F017FB0A4ADC
:100FE0000821034805F012FB00BF80BD88B102084C
:100FF0000085024894B1020800820248A0B10208AC
:10100000ACB10208B8B10208C4B1020880B500AFA3
:10101000084A0321084805F0F9FA064A0221064861
:1010200005F0F4FA034A0121034805F0EFFA00BF86
:1010300080BD00BFD0B102080081024880B500AF7A
:10104000034A0B21034805F0E1FA00BF80BD00BF51
:10105000DCB102080082024880B400AF044BDB68B8
:101060001B0A03F007031846BD465DF8047B704772
:1010700000ED00E080B483B000AF0346FB7197F948
:101080000730002B0BDBFB7903F01F02074997F9B0
:1010900007305B09012000FA02F241F8232000BF6B
:1010A0000C37BD465DF8047B704700BF00E100E0EF
:1010B00080B483B000AF03463960FB7197F9073005
:1010C000002B0ADB3B68DAB20C4997F90730920033
:1010D000D2B20B4483F800230AE03B68DAB2084935
:1010E000FB7903F00F03043B9200D2B20B441A7653
:1010F00000BF0C37BD465DF8047B704700E100E09F
:1011000000ED00E080B489B000AFF860B9607A60AB
:10111000FB6803F00703FB61FB69C3F10703062BC0
:1011200028BF0623BB61FB690633062B02D9FB6986
:10113000013B00E000237B614FF0FF32BB6902FA04
:1011400003F3DA43BB681A407B699A404FF0FF31E2
:101150007B6901FA03F3D9437B680B4013431846BC
:101160002437BD465DF8047B704780B584B000AF7E
:101170000346B9607A60FB73FFF76EFF03467A6837
:10118000B9681846FFF7BEFF024697F90F301146BF
:101190001846FFF78DFF97F90F301846FFF76AFFE3
:1011A00000BF1037BD4680BD80B483B000AF78600B
:1011B0000B46FB707B685A6FFB78012101FA03F341
:1011C0001A437B685A6700BF0C37BD465DF8047B45
:1011D0007047000080B500AF1449154807F02CF99E
:1011E0001449134807F05AF91349114807F037F921
:1011F000002200210E4807F070F9002201210C485E
:1012000007F06BF901220421094807F066F9002173
:101210000748FFF7C9FF01210548FFF7C5FF042173
:101220000348FFF7C1FF00BF80BD00BFECB102085B
:1012300000800240F0B10208E8B1020880B483B037
:1012400000AF78600B46FB707B68D3F8043123F065
:1012500003027B68C3F804217B68D3F80421FB7880
:101260001A437B68C3F8042100BF0C37BD465DF804
:10127000047B704780B483B000AF78607B68D3F89C
:10128000043143F480627B68C3F8042100BF7B68AB
:10129000D3F8083103F02003002BF8D000BF00BFC3
:1012A0000C37BD465DF8047B7047000080B500AF89
:1012B0000E494FF0402007F0BBF903210C4807F01E
:1012C000F1FA0C49002300220968094807F08DFA59
:1012D0000949074807F0ACFB01210548FFF7AEFFBD
:1012E0000348FFF7C7FF00BF80BD00BFF4B102088D
:1012F000005000400CB2020810B2020880B483B063
:1013000000AF786039607B683A681A6100BF0C37BB
:10131000BD465DF8047B704780B483B000AF786051
:101320007B68D3F80031DBB25B11DBB203F007035B
:10133000DBB218460C37BD465DF8047B704780B4BD
:1013400083B000AF786039607B683A68C03253F888
:1013500022309BB218460C37BD465DF8047B7047BF
:1013600080B584B000AF0346FB80FB881A4AD28C5C
:1013700002FB03F39B13FB81174B1B685A8AFB8903
:10138000D31A9AB2144B9A84134AFB895384124B92
:101390009B7B114A0C335B001344DA880F4BDA63F2
:1013A0000D4BDB7B0C4A0C335B001344DA880C4B8F
:1013B000DA63094B1B7C084A0C335B001344DA8860
:1013C000084BDA6340F211110748FFF797FF00BF9F
:1013D0001037BD4680BD00BFD00000200003024092
:1013E00000020240000102400000024080B400AF51
:1013F000124B002283F82920104B0022DA610F4B98
:1014000000221A600D4B00225A600C4B00229A6099
:101410000A4B0022DA60094B00221A61074B0022B6
:101420005A61064B5B6A054A9361044B00221A62BB
:1014300000BFBD465DF8047B704700BFF800002088
:1014400080B582B000AF0548FFF766FF0346FB7129
:10145000FB7918460837BD4680BD00BF00800240BA
:1014600080B584B000AF7860396039687868FFF77C
:1014700066FF0346FB81FB8918461037BD4680BDD9
:1014800080B487B000AFF860B9607A60FA68BB6872
:101490009A4202DDBB687B6108E0FA687B689A4289
:1014A00002DA7B687B6101E0FB687B617B6918463F
:1014B0001C37BD465DF8047B704790B583B000AF24
:1014C000786039607B681A697B681B68796809698C
:1014D00009143868411A01FB03F3D4187B68996832
:1014E0007B68DB681A462046FFF7CAFF02467B6826
:1014F0001A617B681B691A147B685A6100BF0C373C
:10150000BD4690BD80B584B000AF7860052121480C
:10151000FFF7A6FF0346FB601F4B1B68FA68D31A50
:101520001D4A926802FB03F39B13FB60F9681B489A
:10153000FFF7C3FF194B5B69FB60174B93F8203033
:10154000012B1CD1144BDB690133134AD361124BBD
:10155000DA69114B9B699A420CD97B68FA681A6068
:101560000D4AFB6813610C4B0022DA610A4B002222
:1015700083F82020084B1A697B681A6005E07B68B5
:10158000FA681A60044AFB68136100BF1037BD4651
:1015900080BD00BF0050004024010020A4000020B6
:1015A00080B584B000AF786005210F48FFF758FF81
:1015B0000346FB600D4B1B68FA68D31A0B4A92680E
:1015C00002FB03F39B13FB60084B5B691B681A4625
:1015D000FB6802FB03F39B13FB607B68FA681A60ED
:1015E00000BF1037BD4680BD0050004024010020E0
:1015F00080B487B000AFF860B9607A60FA68BB6801
:101600009A4202DDBB687B6108E0FA687B689A4217
:1016100002DA7B687B6101E0FB687B617B691846CD
:101620001C37BD465DF8047B704780B485B000AFC1
:10163000786039607A683B689A4202D10123FB7373
:1016400001E00023FB73FB7B18461437BD465DF8B1
:10165000047B704790B583B000AF786039603C6818
:101660007B685B8A04FB03F37A68527D03FB02F21A
:101670007B685B681A447B685A607B681B8A03FB43
:1016800004F27B685B6813447A68127D43FA02F4C3
:101690007B68D9687B689B681A462046FFF7A8FFDD
:1016A00002467B681A607B681B6819462046FFF774
:1016B000BCFF03461A467B685A7500BF0C37BD460F
:1016C00090BD000080B584B000AF78600C4BDB6E3D
:1016D0000C4AD3600C4B1B680A4A9360094B9A680A
:1016E000084BDB68D31AFB60F9680848FFF7B2FFC4
:1016F000064B1A687B681A6000BF1037BD4680BD74
:101700008C01002048010020BC0000208C0000203B
:1017100080B584B000AF786039607B68002B13DA45
:101720007B685B427B60254B9B6F012B1FD1234B5A
:101730004FF0FF329A67FFF783FE0346FB73FB7B94
:10174000184609F009FD12E07B68002B0FDD1B4BEA
:101750009B6FB3F1FF3F0AD1184B01229A67FFF745
:101760006FFE0346FB73FB7B184609F0F5FC7A68B5
:101770003B681A60124B5B68BB60BB68002B19D1D9
:101780000E4BDA6E0D4BD3F8A4309A4212DA0B4BA3
:10179000DA6E0A4BD3F8A4305B429A420ADD074B5B
:1017A0000022DA66054B00221A67064B00225A60B7
:1017B000FFF71CFE00BF1037BD4680BD8C01002026
:1017C000480100208C00002080B483B000AF786016
:1017D0007B684FF48072DA6000BF0C37BD465DF85D
:1017E000047B704780B483B000AF78607B684FF4AF
:1017F00080729A6000BF0C37BD465DF8047B70476D
:1018000080B483B000AF78607B680122DA6000BFEB
:101810000C37BD465DF8047B704780B483B000AFE1
:1018200078607B6801221A6100BF0C37BD465DF805
:10183000047B704780B483B000AF78607B681B6F17
:101840009BB218460C37BD465DF8047B704780B4E8
:1018500083B000AF78600B467B807A887B681A671C
:1018600000BF0C37BD465DF8047B704780B483B081
:1018700000AF78607B68D3F80031DBB25B11DBB27C
:1018800003F00703DBB218460C37BD465DF8047B56
:10189000704780B483B000AF78607B681B6BDB0857
:1018A000DBB203F00703DBB218460C37BD465DF828
:1018B000047B704780B483B000AF78600B46FB7048
:1018C000FB7803F03F027B685A6300BF0C37BD46CC
:1018D0005DF8047B704780B483B000AF78607B68AC
:1018E00002229A6400BF0C37BD465DF8047B704746
:1018F00080B483B000AF78600B46FB70FB780122A8
:101900009A407B68DA6700BF0C37BD465DF8047B00
:10191000704780B483B000AF78600B46FB707B6883
:101920001A6FFB7822FA03F3DBB203F00103DBB298
:1019300018460C37BD465DF8047B704780B582B011
:1019400000AF0346FB71FB7919460348FFF7B2FF6E
:1019500000BF0837BD4680BD0080024080B500AFA3
:101960000248FFF7B8FF00BF80BD00BF0080024003
:1019700080B582B000AF0548FFF78BFF0346FB71CF
:10198000FB7918460837BD4680BD00BF0080024085
:1019900080B582B000AF0321044806F009FA7860F0
:1019A0007B6818460837BD4680BD00BF00C20040B6
:1019B00080B582B000AF0548FFF758FF0346FB71C2
:1019C000FB7918460837BD4680BD00BF0080024045
:1019D00080B500AF0A48FFF720FF0A48FFF702FF73
:1019E00000210748FFF733FF0521054806F0F2F90B
:1019F0000448FFF7E9FE0248FFF702FF00BF80BD81
:101A000000C2004000C0004080B582B000AF054871
:101A1000FFF710FF0346FB80FB8818460837BD46DA
:101A200080BD00BF00C2004080B582B000AF034659
:101A3000FB71FB7919460448FFF76BFF0346184614
:101A40000837BD4680BD00BF0080024080B582B02F
:101A500000AF0346FB71FB7919460348FFF748FFC7
:101A600000BF0837BD4680BD0080024080B588B009
:101A700000AF594B9B6FDBB203F00803FB77564B6B
:101A80009B6F5B42BB61BB69DBB203F00803FB7574
:101A900000237B60514B012283F82020FFF788FF51
:101AA0000346BB754E4B5B7C1A46FB7D13444C4A88
:101AB000D35CDB087B754A4B5B7C1A46FB7F134487
:101AC000474AD35CDB083B757A7DBB7D9A4203D0E5
:101AD0003A7DBB7D9A426BD1424B1B78002B2AD1B9
:101AE0003D4B93F86430DBB2022B24D13A4B9B6F11
:101AF0005B423C4AD3603B4BDB68DBB203F008033C
:101B0000FB77384B01221A74BA7DFB7F1344344AA9
:101B1000D35C1846FFF712FFFFF720FFFFF728FFFF
:101B20000346FB74FA7CFB7F13442D4AD35C1846B2
:101B3000FFF704FF35E0284B9B6F5B42264AD367D3
:101B4000BB7D184609F008FBFFF75EFF03463B82AA
:101B5000254B9B6A1B0A03F00F03FB60FFF738FF5E
:101B6000FB68053B214A52F82320398AFB68053B74
:101B700001FA03F31344BB601D4ABB6893613B1D2C
:101B80001946B86809F0F0FA134BDB6F7A6802FB6C
:101B900003F3114AD2F8BC2002FB03F39B120E4A56
:101BA000D366FFF705FF03461A460D4B5A740BE048
:101BB000094B9B6E43F00803074A9366064B0822C5
:101BC00083F8642000F0E8FE0120FFF73FFF00BF2C
:101BD0002037BD4680BD00BF8C01002024010020BD
:101BE000580100206C01002000C2004000000020CD
:101BF000F800002080B586B000AF344B9B6FDBB29D
:101C000003F00803FB75324B5B690133304A5361C3
:101C10002F4B00229A602E4B5B69012B0AD12C4B73
:101C20001B7C002B06D1294B9B6F294AD360284B84
:101C300001221A74264BDB68DBB203F00803FB7544
:101C4000FFF7A6FE3861224B5B69012B25D9204B9B
:101C50001B78002B21D1FFF79BFE38613B699BB2BB
:101C6000FB603B691B0C03F00F03BB60184B5A6809
:101C7000BB68053B174951F82310BB68053BF86862
:101C800000FA03F30B441344114A5360104B5B6991
:101C9000032B02D10E4B01221A70FFF789FE034677
:101CA0001A460D4B5A74FFF763FE0346FB71FA792F
:101CB000FB7D1344084AD35C1846FFF73FFE002023
:101CC000FFF7C4FE00BF1837BD4680BD8C01002061
:101CD0006C010020000000205801002080B483B077
:101CE00000AF78607B68D3F80031DBB25B11DBB208
:101CF00003F00703DBB218460C37BD465DF8047BE2
:101D0000704780B483B000AF78607B681B6BDB08E2
:101D1000DBB203F00703DBB218460C37BD465DF8B3
:101D2000047B704780B483B000AF78600B46FB70D3
:101D3000FB7803F03F027B685A6300BF0C37BD4657
:101D40005DF8047B704780B483B000AF78600B46C9
:101D50007B807A887B685A6400BF0C37BD465DF88B
:101D6000047B704780B483B000AF78607B681B6CE5
:101D70009BB218460C37BD465DF8047B704780B4B3
:101D800083B000AF78607B685B6C9BB218460C3701
:101D9000BD465DF8047B704780B586B000AF7860C3
:101DA0000123FB750321164806F002F838613B69F0
:101DB00003F48013002B1BD03B691B0C03F00F03B3
:101DC000FB603B699BB23B61FB68053B0D4A52F8E7
:101DD0002320FB68053B396901FA03F313440A4ADF
:101DE0009361094B9A697B681A600023FB7502E0D6
:101DF0007B6800221A60FB7D18461837BD4680BDFF
:101E000000C2004000000020F800002080B582B031
:101E100000AF0346FB80FB8819460348FFF793FF9A
:101E200000BF0837BD4680BD0080024080B582B04B
:101E300000AF0548FFF796FF0346FB80FB88184676
:101E40000837BD4680BD00BF0080024080B582B02B
:101E500000AF0548FFF793FF0346FB80FB88184659
:101E60000837BD4680BD00BF0080024080B582B00B
:101E700000AF0346FB71FB7919460348FFF752FF99
:101E800000BF0837BD4680BD0080024080B582B0EB
:101E900000AF0548FFF735FF0346FB71FB79184695
:101EA0000837BD4680BD00BF0080024080B582B0CB
:101EB00000AF0548FFF712FF0346FB71FB79184698
:101EC0000837BD4680BD00BF0080024080B483B0AB
:101ED00000AF786039607B683A68C03253F82230CE
:101EE0009BB218460C37BD465DF8047B704780B541
:101EF00084B000AF7860396039687868FFF7E6FF32
:101F00000346FB81FB8918461037BD4680BD80B46F
:101F100087B000AFF860B9607A60FA68BB689A422F
:101F200002DDBB687B6108E0FA687B689A4202DAEE
:101F30007B687B6101E0FB687B617B6918461C372D
:101F4000BD465DF8047B704790B583B000AF786004
:101F500039607B681A697B681B68796809690914AC
:101F60003868411A01FB03F3D4187B6899687B68D1
:101F7000DB681A462046FFF7CAFF02467B681A61F3
:101F80007B681B691A147B685A6100BF0C37BD4619
:101F900090BD000080B584B000AF78600521214875
:101FA000FFF7A5FF0346FB601F4B1B68FA68D31AB7
:101FB0001D4A926802FB03F39B13FB60F9681B4800
:101FC000FFF7C2FF194B5B69FB60174B93F820309A
:101FD000012B1CD1144BDB690133134AD361124B23
:101FE000DA69114B9B699A420CD97B68FA681A60CE
:101FF0000D4AFB6813610C4B0022DA610A4B002288
:1020000083F82020084B1A697B681A6005E07B681A
:10201000FA681A60044AFB68136100BF1037BD46B6
:1020200080BD00BF0050004024010020A40000201B
:1020300080B582B000AF214BD3F880315B0903F04B
:102040000103012B35D13B1D1846FFF7A3FF1C4BA5
:10205000DA687B689A4204DB7B6843F6D872934265
:102060000CDD184B9B6E43F00403164A9366154B28
:10207000082283F8642000F08FFC1AE0114BD3F89B
:10208000AC3002330F4AC2F8AC300E4BD3F8AC2060
:102090000C4BD3F8A8309A420BD90A4B9B6E43F0F5
:1020A0000203084A9366074B082283F8642000F075
:1020B00073FC00BF0837BD4680BD00BF0050004024
:1020C000240100208C01002080B483B000AF0346BF
:1020D000FB7197F90730002B0CDBFB7903F01F0233
:1020E000074997F907305B09012000FA02F26033D3
:1020F00041F8232000BF0C37BD465DF8047B7047D4
:1021000000E100E080B483B000AF7860054BDA6C8A
:1021100004497B681343CB6400BF0C37BD465DF8B0
:10212000047B70470040005080B483B000AF7860FB
:102130007B681B6BDB08DBB203F00703DBB21846DE
:102140000C37BD465DF8047B704780B483B000AFA8
:1021500078600B46FB70FB7803F03F027B685A63A4
:1021600000BF0C37BD465DF8047B704780B483B078
:1021700000AF78607B6802229A6400BF0C37BD46CE
:102180005DF8047B704780B483B000AF78600B4685
:10219000FB707B685A6FFB78012101FA03F3DB4384
:1021A0001A407B685A6700BF0C37BD465DF8047B58
:1021B000704780B500AF4FF48070FFF7A3FF00BFFA
:1021C00080BD000080B400AF124B002283F82920AC
:1021D000104B0022DA610F4B00221A600D4B0022D7
:1021E0005A600C4B00229A600A4B0022DA60094BBD
:1021F00000221A61074B00225A61064B5B6A054AAE
:102200009361044B00221A6200BFBD465DF8047B57
:10221000704700BFF800002080B582B000AF0346D1
:10222000FB71FB7919460348FFF78FFF00BF0837A2
:10223000BD4680BD0080024080B500AF0248FFF778
:1022400095FF00BF80BD00BF0080024080B582B016
:1022500000AF0548FFF768FF0346FB71FB7918469E
:102260000837BD4680BD00BF0080024080B582B007
:1022700000AF0346FB71FB7919460348FFF783FF64
:1022800000BF0837BD4680BD0080024080B500AF6A
:1022900000F07AFAFEF7BEFB00223C210E20FEF78A
:1022A00064FF00F002F800BF80BD80B500AF00F011
:1022B00081F800BF80BD000080B500AF0020FFF7AF
:1022C000D5FFFEF7ABFC0346DAB21A4B5A74194B32
:1022D0005B7C184608F040FF4420FFF7F5FE164BE4
:1022E00093F86430DBB2022B06D0FEF769FC0022C3
:1022F0003D214420FEF739FF00223D214520FEF715
:1023000034FF00223E213C20FEF72FFF0A4B93F8BA
:102310006430DBB2012B05D0074B93F86430DBB29D
:10232000022B01D1FFF745FF034B072283F86420FE
:1023300000BF80BD580100208C01002080B582B014
:1023400000AF184B1B68184A1360184B5B68154A9E
:102350005360144B5A68134B1B68D31A124A926F7E
:1023600002FB03F37B607B68002B04DA0D4B1B69D7
:102370000C4A936003E00B4BDB680A4A936008F059
:10238000E7FE0B4B9B6A1B0A3B603B680B2B04D997
:10239000FFF718FF044B0022DA6600BF0837BD467E
:1023A00080BD00BFBC0000208C010020480100203F
:1023B00000C2004080B582B000AF1B4B9B6FDBB208
:1023C00003F00803FB71184B9B6F184AD360FEF7AC
:1023D00025FC0346DAB2164B5A74154B5B7C1A4641
:1023E000FB791344124AD35C1846FFF715FFFFF739
:1023F00023FFFFF72BFF0346BB71BA79FB79134428
:102400000B4AD35C1846FFF707FFFEF7D9FB002203
:102410003D214420FEF7A9FE034B022283F86420ED
:1024200000BF0837BD4680BD8C0100206C01002034
:102430005801002080B500AF00F058F90346012B89
:1024400001D100F003F800BF80BD000080B500AFEF
:102450000020FFF70BFF204BDA68204B9B6F9A425E
:1024600018D11E4BDA6E1C4B9B699A4206DC1B4B43
:10247000DA6E194B9B695B429A4206DA174BDB6EA8
:10248000174A1360FFF718FF23E0FEF70BFAFFF778
:1024900013FF1EE0114BDA6E0F4B9B699A4206DC6C
:1024A0000E4BDA6E0C4B9B695B429A420CDA0B4B7B
:1024B000082283F86420094B9B6E43F08003074A8F
:1024C000936600F069FA04E0FEF7ECF9FFF7F4FE1A
:1024D000FFE700BF80BD00BF6C0100208C01002021
:1024E000BC00002080B400AF064B9B6E002B03D1D4
:1024F000044B002283F8642000BFBD465DF8047BD6
:10250000704700BF8C01002080B483B000AF7860BA
:102510007B681B6BDB08DBB203F00703DBB21846FA
:102520000C37BD465DF8047B704780B483B000AFC4
:1025300078600B46FB70FB7803F03F027B685A63C0
:1025400000BF0C37BD465DF8047B704780B483B094
:1025500000AF78607B6802229A6400BF0C37BD46EA
:102560005DF8047B704780B483B000AF78600B46A1
:102570007B807A887B685A6400BF0C37BD465DF863
:10258000047B704780B483B000AF78607B681B6CBD
:102590009BB218460C37BD465DF8047B704780B48B
:1025A00083B000AF78607B685B6C9BB218460C37D9
:1025B000BD465DF8047B704780B483B000AF78609F
:1025C0007B689B6C43F004027B689A6400BF0C3705
:1025D000BD465DF8047B704780B483B000AF78607F
:1025E0000B46FB707B685A6FFB78012101FA03F3FD
:1025F000DB431A407B685A6700BF0C37BD465DF865
:10260000047B704780B582B000AF0346FB80FB8837
:1026100019460348FFF7A7FF00BF0837BD4680BD36
:102620000080024080B500AF0248FFF7C5FF00BF41
:1026300080BD00BF0080024080B582B000AF054879
:10264000FFF7A0FF0346FB80FB8818460837BD460E
:1026500080BD00BF0080024080B582B000AF054859
:10266000FFF79DFF0346FB80FB8818460837BD46F1
:1026700080BD00BF0080024080B582B000AF03463D
:10268000FB71FB7919460348FFF74FFF00BF08377E
:10269000BD4680BD0080024080B500AF0248FFF714
:1026A00055FF00BF80BD00BF0080024080B582B0F2
:1026B00000AF0548FFF728FF0346FB71FB7918467A
:1026C0000837BD4680BD00BF0080024080B582B0A3
:1026D00000AF0346FB71FB7919460348FFF77CFF07
:1026E00000BF0837BD4680BD0080024080B582B083
:1026F00000AF0023FB71214B1B78012B25D100205B
:10270000FFF7E4FF1D4B5B685A0813465B00134458
:102710005B001A46194B5A60194B5A6A174B5B6893
:10272000B2FBF3F33B60174BD3F8BC303A6802FBC3
:1027300003F39B0A3B60114BDB683A6802FB03F32F
:10274000104AD3660123FB7112E00C4B9B680133E6
:102750000A4A9360094B9A68084BDB699A4207D38F
:10276000084B0022DA660020FFF7B0FF0123FB715F
:10277000FB7918460837BD4680BD00BF6C010020BC
:10278000F80000208C01002080B483B000AF2B4BF8
:102790000022C3F89420294B0022DA66274B00223E
:1027A0001A67264B00225A67244B0022C3F8802068
:1027B000224B0022C3F8AC20214B0022DA61214BCE
:1027C00000221A61204B1B687B601F4B5B683B60DB
:1027D0007B68002B0BD13B68002B03DB174B0122DE
:1027E0009A670FE0154B4FF0FF329A670AE07B685B
:1027F000002B03DD114B01229A6703E00F4B4FF0D2
:10280000FF329A670D4B9B6F0C4AD3670E4B1B68C8
:102810000E4A13600E4B00225A600D4B00221A60C4
:102820000B4B01225A75054B002283F8C32000BFD1
:102830000C37BD465DF8047B704700BF8C0100205B
:1028400024010020A400002048010020BC0000203A
:102850008C00002080B483B000AF314B1B68314A3C
:1028600013600023FB7150E0FB792F4A10335B00AB
:1028700013449B8803F47063B3F5807F0FD1FB7919
:10288000294A10335B0013449A88FB7942F40072A2
:1028900091B2254A5B0013440A469A8032E0FB79E4
:1028A000214A10335B0013449B8803F0F003102B84
:1028B0000FD1FB791C4A10335B0013449A88FB79D3
:1028C00042F0200291B2184A5B0013440A469A80F3
:1028D00018E0FB79144A10335B0013449B8803F023
:1028E0000F03012B0ED1FB790F4A10335B00134409
:1028F0009A88FB7942F0020291B20B4A5B001344C2
:102900000A469A80FB790133FB71FB790F2BABD917
:1029100000BF00BF0C37BD465DF8047B704700BFA9
:1029200048010020BC0000208C01002080B500AFD1
:10293000FEF7BCFCFDF790FF00BF80BD80B582B004
:1029400000AF00237B6002E07B6801337B607B6823
:10295000074A9342F8D9FEF741F8FEF727F9FFF747
:10296000E5FFFFF777FF00BF0837BD4680BD00BF1A
:10297000FEFF070080B500AF064B93F86430DBB272
:10298000002B05D1034B012283F8642008F0E8FBFB
:1029900000BF80BD8C01002080B500AFFEF732F88B
:1029A000FEF726F9FEF74EF80C4B0022DA660B4BC9
:1029B00000221A67094B00225A67084B9B6E002BB6
:1029C00006D0064B082283F8642008F0C9FB03E018
:1029D000024B002283F8642000BF80BD8C010020E0
:1029E00080B483B000AF7860074BDB6E064AD2F844
:1029F000B02002FB03F3DA137B681A6000BF0C37C8
:102A0000BD465DF8047B70478C0100202DE9B00FB6
:102A100085B000AFF8602A49496FC81739607860FF
:102A20002749D1F8B410C8178A46834679680AFB4B
:102A300001F0396801FB0BF101443868A0FB0A235F
:102A400019440B46104619464FF0000A4FF0000B90
:102A50004FEA411B4BEAD06B4FEA401A50465946A9
:102A6000841A61EB03054FF000004FF00001A9004C
:102A700041EA9471A00004460D4614EB020845EBB0
:102A800003094FF000024FF000034FEAC90343EA85
:102A900058734FEAC80290469946404649464FF05F
:102AA00000024FF00003C20B42EA4142CB13FB6825
:102AB0001A6000BF1437BD46BDE8B00F704700BFB5
:102AC0008C01002080B485B000AF78600223FB73D6
:102AD0007B68B3F5966F0EDC7B6813F5966F0ADBA7
:102AE0007B68DB03074AD2F8B02093FBF2F3064A77
:102AF00053600023FB73FB7B18461437BD465DF81B
:102B0000047B70478C0100204801002080B485B010
:102B100000AF0346FB800223FB73B7F90630002B9E
:102B200004DB064AFB8813820023FB73FB7B1846F9
:102B30001437BD465DF8047B704700BF8C00002051
:102B400080B485B000AF0346FB800223FB73B7F966
:102B50000630002B04DB064AFB8853820023FB73FC
:102B6000FB7B18461437BD465DF8047B704700BFF9
:102B70008C00002080B485B000AF0346FB710223B7
:102B8000FB73FB79642B11D8FA7913469B039B1ACC
:102B90000A4AA2FB03235B09BB60BB68084AD360F7
:102BA000BB685B42064A93600023FB73FB7B1846BD
:102BB0001437BD465DF8047B704700BF1F85EB519D
:102BC0008C00002080B400AF034B00229A6600BF47
:102BD000BD465DF8047B70478C01002080B500AFD6
:102BE0000023114A01214FF47A7006F09DFA034642
:102BF0001A460E4B1A6000230D4A0121642006F08C
:102C000093FA03461A460B4B1A600A4B1B68184688
:102C100006F028FB054B1B68184606F023FBFFF760
:102C20008DFE00BF80BD00BF752E02081806002073
:102C3000112D02081C06002080B500AFFFF79AFE98
:102C400000BF80BD80B500AFFFF7A6FE00BF80BD0E
:102C500080B582B000AF78607868FFF733FF00BFBF
:102C60000837BD4680BD80B582B000AF0346FB800B
:102C7000FB881846FFF74AFF00BF0837BD4680BDF6
:102C800080B582B000AF0346FB80FB881846FFF793
:102C900057FF00BF0837BD4680BD80B582B000AF8A
:102CA0000346FB71FB791846FFF764FF00BF083746
:102CB000BD4680BD80B500AFFFF784FF00BF80BD7B
:102CC00080B582B000AF0F48FFF7A0FE0E4B1B6926
:102CD000002BB8BF5B427B607B689AB20A4B5A807C
:102CE0000A48FFF77DFE084BDB68002BB8BF5B424C
:102CF0003B603B689AB2044B9A8000BF0837BD46E0
:102D000080BD00BF10060020000600200C06002039
:102D100080B584B000AF78600023FB60FDF77EFFD4
:102D2000F860524B1B68FA689A4200F09080FB688A
:102D3000012B08D14D4B1B68052B04D14C4B9B68D4
:102D400001334B4A9360FB68012B08D1474B1B684A
:102D5000032B04D1464B9B68013B454A9360FB68BB
:102D6000032B08D1414B1B68012B04D1404B9B68BE
:102D700001333F4A9360FB68032B08D13B4B1B6830
:102D8000022B04D13A4B9B68013B394A9360FB68A4
:102D9000022B08D1354B1B68032B04D1344B9B68A5
:102DA0000133334A9360FB68022B08D12F4B1B6819
:102DB000062B04D12E4B9B68013B2D4A9360FB6888
:102DC000062B08D1294B1B68022B04D1284B9B688A
:102DD0000133274A9360FB68062B08D1234B1B68FD
:102DE000042B04D1224B9B68013B214A9360FB6872
:102DF000042B08D11D4B1B68062B04D11C4B9B6870
:102E000001331B4A9360FB68042B08D1174B1B68E6
:102E1000052B04D1164B9B68013B154A9360FB6858
:102E2000052B08D1114B1B68042B04D1104B9B6858
:102E300001330F4A9360FB68052B08D10B4B1B68CD
:102E4000012B04D10A4B9B68013B094A9360074A56
:102E5000FB681360064B9B68002BB8BF5B429AB2BD
:102E6000034B1A8000BF1037BD4680BD20060020EE
:102E70000006002080B582B000AF786008F070F9DD
:102E800000BF0837BD4680BD80B483B000AF786016
:102E90000B46FB70FB7801229A407B685A6000BFAA
:102EA0000C37BD465DF8047B704780B483B000AF3B
:102EB00078600B46FB70FB784FF480329A407B6859
:102EC0005A6000BF0C37BD465DF8047B704780B583
:102ED00082B000AF78607B681A687B681B7C1946FB
:102EE0001046FFF7D1FF00BF0837BD4680BD80B553
:102EF00082B000AF78607B681A687B681B7C1946DB
:102F00001046FFF7D2FF00BF0837BD4680BD000066
:102F100080B582B000AF7860424B9B6C002B34D1FF
:102F20007B68012B31D1404B1B6801333E4A136053
:102F30003D4B1B68032B10DD3B4B1B68072B0CDC48
:102F40003A48FFF7C4FF4FF4FA6240F23E31384886
:102F500006F0BAFC364806F06DFC334B1B68032BB9
:102F60000CDC3248FFF7B3FF4FF4FA6240F217412E
:102F70002F4806F0A9FC2E4806F05CFC2A4B1B6883
:102F8000072B02DD284B00221A60264B9B6C012B7D
:102F900034D17B68012B31D1234B1B680133224A8A
:102FA0001360214B1B68032B10DD1F4B1B68072B85
:102FB0000CDC1E48FFF78BFF42F2341240F23E3128
:102FC0001B4806F081FC1A4806F034FC164B1B68BF
:102FD000032B0CDC1548FFF77AFF42F2341240F263
:102FE0001741134806F070FC114806F023FC0E4B05
:102FF0001B68072B02DD0C4B00221A607B68002B3C
:103000000BD10C48FFF763FF0848FFF770FF084833
:1030100006F03BFC044B00221A6000BF0837BD4697
:1030200080BD00BF700700202406002044B50208C0
:10303000900200202CB4020880B500AF02210448A1
:1030400006F0A6FC0348FFF752FF00BF80BD00BF9B
:10305000900200202CB4020880B500AF0021044883
:1030600006F096FC0348FFF732FF00BF80BD00BFAB
:10307000900200202CB4020880B483B000AF7860C6
:103080000B46FB70FB7801229A407B685A6000BFB8
:103090000C37BD465DF8047B704780B483B000AF49
:1030A00078600B46FB70FB784FF480329A407B6867
:1030B0005A6000BF0C37BD465DF8047B704780B492
:1030C00083B000AF78600B46FB707B685A6AFB7870
:1030D00022FA03F303F0010318460C37BD465DF8EE
:1030E000047B704780B582B000AF78607B681A6857
:1030F0007B681B7C19461046FFF7BEFF00BF0837F0
:10310000BD4680BD80B582B000AF78607B681A682C
:103110007B681B7C19461046FFF7BFFF00BF0837CE
:10312000BD4680BD80B582B000AF78607B681A680C
:103130007B681B7C19461046FFF7C1FF0346184603
:103140000837BD4680BD000080B500AF00231A4A95
:103150000121642005F0E8FF03461A46174B1A6068
:10316000164B1B68184606F07DF81548FFF7BAFFA6
:103170001448FFF7B7FF1448FFF7C4FF1348FFF7E1
:10318000C1FF1348FFF7BEFF1248FFF7ABFF12481D
:10319000FFF7A8FF1148FFF7A5FF41F270724FF447
:1031A000FA610F4806F090FB0E48FFF79BFF0E48B0
:1031B000FFF7A8FF00BF80BDC13702084C06002002
:1031C00054B4020858B502086CB5020880B502086C
:1031D00040B40208BCB50208A8B5020894B50208BC
:1031E000680200202CB4020844B5020880B500AF84
:1031F000134807F0F3F803461A46124B1A80124898
:1032000007F0ECF803461A460E4B5A800F4807F0B9
:10321000E5F803461A460B4B9A800D48FFF782FFEC
:103220000346002B03D0074B0022DA8002E0054B57
:103230000122DA80074807F0D7FA00BF80BD00BF3F
:1032400048050020680600205C05002020050020BD
:10325000DCB30208DC05002080B400AF084B1B88FB
:1032600003F00403002B03D0064B01221A6002E096
:10327000044B00221A6000BFBD465DF8047B704716
:10328000680600204806002080B400AF114B5B6840
:10329000002B0DD0104B1B8803F00803002B03D02C
:1032A0000E4B00221A6010E00C4B01221A600CE059
:1032B000094B1B8803F00803002B03D0074B0122A6
:1032C0001A6002E0054B00221A6000BFBD465DF89F
:1032D000047B704770070020680600202C06002041
:1032E00080B500AF1148FFF71DFF0346002B03D048
:1032F0000F4B00221A6002E00D4B01221A600C4BAA
:103300001B68002B07D00B4B1B68002B03D10A4B0B
:1033100001221A6002E0084B00221A60044B1B686D
:103320001A46044B1A6000BF80BD00BFDCB3020820
:1033300038060020780600203C06002080B582B0C8
:1033400000AF0023FB800A4807F048F80346FB80E3
:10335000FB8803F00103002B03D0064B01221A6007
:1033600002E0044B00221A6000BF0837BD4680BD52
:10337000200500203006002080B582B000AF002379
:10338000FB800A4807F02AF80346FB80FB8803F01D
:103390000203002B03D0064B01221A6002E0044B0B
:1033A00000221A6000BF0837BD4680BD20050020FE
:1033B0003406002080B400AF084B1B89B3F5FA6FC8
:1033C00003D3074B01221A6002E0054B00221A606A
:1033D00000BFBD465DF8047B704700BF6806002053
:1033E0002806002080B582B000AF78607B68002B93
:1033F00010D0254B1B68002B0CD141F288324FF4C2
:10340000C871224806F060FA204806F013FA204BF3
:1034100001221A601E4B1B68002B18D01D4B1B6825
:1034200001331C4A13601B4B1B68C72B0FDD184B65
:1034300000221A60174B00221A6041F64C524FF4DA
:10344000C871124806F040FA104806F0F3F97B689C
:10345000002B03D00D4806F0EDF90EE00B4806F006
:1034600014FA0D48FFF74EFE0C48FFF74BFE084BD1
:1034700000221A60074B00221A60034A7B6813601F
:1034800000BF0837BD4680BD7C06002068020020D2
:103490008006002084060020B8B40208CCB40208DC
:1034A00080B582B000AF78607B68002B04D0FF212C
:1034B000054806F0C0FF03E00021034806F0BBFF0B
:1034C00000BF0837BD4680BD3405002080B485B0FC
:1034D00000AFF860B9607A60124B1B68BA689A4214
:1034E00040F05181BB68032B69D10F4B1A6813461A
:1034F0009B0013445B001A467B68934218DC0B4B1D
:1035000000221A60094B00225A60084B00229A6080
:10351000064B0022DA60054B00221A61034B0022A1
:103520005A614CE0880600208C06002050060020DE
:10353000984B1B680133974A1360FB68B3F17F4FC8
:1035400011D1954B3C221A60934B00225A60924B4A
:1035500000229A60904B1422DA608F4B00221A618D
:103560008D4B00225A61FB68B3F57F0F11D18A4B56
:1035700000221A60884B3C225A60874B00229A60D6
:10358000854B0022DA60844B14221A61824B0022A0
:103590005A61FB6813F5803F11D17F4B1E221A60E0
:1035A0007D4B1E225A607C4B00229A607A4B14227B
:1035B000DA60794B14221A61774B00225A61BB689A
:1035C000022B40F08680734B1B680133714A1360F5
:1035D000704B1A6813469B0013445B001A467B68C5
:1035E000934241DDFB68B3F17F4F11D16A4B3C221E
:1035F0001A60694B00225A60674B00229A60664B42
:103600001422DA60644B00221A61634B00225A6173
:10361000FB68B3F57F0F11D15F4B00221A605E4B40
:103620003C225A605C4B00229A605B4B0022DA60BD
:10363000594B14221A61584B00225A61FB6813F54A
:10364000803F11D1544B1E221A60534B1E225A60E8
:10365000514B00229A60504B1422DA604E4B1422D8
:103660001A614D4B00225A614A4B1A6813469B005F
:1036700013445B001A467B685B009A421BDA454B99
:103680001A6813469B0013445B001A467B689342FA
:1036900011DC414B00221A603F4B00225A603E4B26
:1036A00000229A603C4B0022DA603B4B00221A61F8
:1036B000394B00225A61374B1A6813469B0013445A
:1036C0005B001A467B685B009A4202DB314B0022AA
:1036D0001A60BB68002B11D12F4B00221A602E4BB1
:1036E00000225A602C4B00229A602B4B0022DA6099
:1036F000294B00221A61284B00225A61BB68012B1A
:1037000041D1FB68B3F17F4F11D1234B3C221A60AA
:10371000214B00225A60204B00229A601E4B14223B
:10372000DA601D4B00221A611B4B00225A61FB68B4
:10373000B3F57F0F11D1184B00221A60164B3C22B3
:103740005A60154B00229A60134B0022DA60124B2C
:1037500014221A61104B00225A61FB6813F5803F56
:1037600011D10D4B1E221A600B4B1E225A600A4BC0
:1037700000229A60084B1422DA60074B14221A6167
:10378000054B00225A61054B1B68BA689A420AD061
:1037900006E000BF8C0600205006002088060020AE
:1037A000054B00221A60054ABB68136000BF14373E
:1037B000BD465DF8047B70478C060020880600201B
:1037C00080B582B000AF7860394B1B68632B02DD97
:1037D000374B00221A60364B1B68002B29D1354B22
:1037E0001B68002B02D03448FFF77CFC314B5B6830
:1037F000002B02D03148FFF775FC2E4B9B68002B45
:1038000002D02F48FFF76EFC2A4BDB68002B02D05A
:103810002C48FFF767FC274B1B69002B02D02A4876
:10382000FFF760FC234B5B69002B02D02748FFF7B2
:1038300059FC204B1A681E4B1B689A4202DC1E483A
:10384000FFF760FC1B4B5A68194B1B689A4202DC5D
:103850001A48FFF757FC174B9A68154B1B689A429A
:1038600002DC1748FFF74EFC124BDA68104B1B685E
:103870009A4202DC1348FFF745FC0E4B1A690C4BC9
:103880001B689A4202DC1048FFF73CFC094B5A695E
:10389000074B1B689A4202DC0C48FFF733FC044BD1
:1038A0001B680133024A136000BF0837BD4680BD64
:1038B0009006002050060020D0B50208E4B50208AA
:1038C000F8B502080CB6020820B6020834B60208A1
:1038D00080B582B000AF786039607B681B6839685A
:1038E000184603F021FD00BF0837BD4680BD00002B
:1038F00080B500AF084B9B6803F5807319460748F5
:10390000FFF7E6FF0649054806F048FC034806F0C5
:1039100021FC00BF80BD00BF7007002018B702085F
:10392000CC06002080B483B000AF0023FB710023DD
:10393000BB71124B1B78FB71FB7903F00403002B66
:1039400003D00F4B01221A6002E00D4B00221A60D7
:103950000A4B5B79BB71FB7903F00103002B03D0A9
:10396000084B01221A6002E0064B00221A6000BFD9
:103970000C37BD465DF8047B704700BF94060020FD
:10398000B4060020B006002080B483B000AF00234E
:103990007B600E4B3B603B681B687B600C4B9B68FD
:1039A0009B00012202FA03F31A467B681340002BA6
:1039B00003D0084B01221A6002E0064B00221A6075
:1039C00000BF0C37BD465DF8047B70479C060020A5
:1039D00070070020B806002080B483B000AF002339
:1039E0007B60194B3B603B681B687B60174B9B6897
:1039F0009B00012202FA03F31A467B681340002B56
:103A000003D0134B01221A6002E0114B00221A600E
:103A1000104B3B607B68002B0BD10F4B1B68002BBE
:103A200007D03B681B68002B03D10C4B01221A60A6
:103A300003E00A4B00221A6000BF00BF0C37BD46EE
:103A40005DF8047B704700BFA406002070070020CB
:103A5000BC0600209C060020B0060020C006002006
:103A600080B483B000AF0023FB710123FB71654A72
:103A7000FB7913700023FB71634B1B68033B092B1D
:103A800033D801A252F823F0B13A0208CF3A020823
:103A9000C53A0208BB3A0208EB3A0208EB3A0208C0
:103AA000EB3A0208EB3A0208E33A0208D93A020874
:103AB000FB7943F00103FB7117E0FB7943F002034C
:103AC000FB7112E0FB7943F00403FB710DE0FB791D
:103AD00043F00803FB7108E0FB7943F01003FB712E
:103AE00003E0FB7943F01003FB71484B1B68002B8C
:103AF00003D0FB7943F00103FB71424AFB79537019
:103B00000023FB71424B1B68002B03D0FB7943F071
:103B10000103FB713C4B1B680A2B03D1FB7943F07B
:103B20000203FB71374AFB7993700023FB71394B19
:103B30001B68002B03D0FB7943F00403FB71314A6F
:103B4000FB79D3700023FB710023FB712E4B1B68A4
:103B5000042B03D02C4B1B680B2B01D14023FB7192
:103B6000294B1B68052B0FD0274B1B68062B0BD04E
:103B7000254B1B68072B07D0234B1B680A2B03D050
:103B8000214B1B68022B01D16023FB711E4B1B686C
:103B9000032B01D10023FB711B4B1B680C2B0BD09B
:103BA000194B1B680A2B07D0174B1B68162B03D029
:103BB000154B1B68152B03D1FB7943F00103FB71F7
:103BC000104AFB799371144B9B68002B01D186231B
:103BD000FB71114B9B68052B01D18723FB710E4BA9
:103BE0009B68002B05D00C4B9B68052B01D09623BE
:103BF000FB71044AFB79D37100BF0C37BD465DF8F9
:103C0000047B7047CC060020F40600202C06002020
:103C100028060020340600207007002080B584B0FC
:103C200000AF354806F0A8FA344B1B680133334A1D
:103C30001360324B1B68C72B02D9314B01221A602B
:103C40002D4B1B685B6823F06043802B15D100234C
:103C5000FB600DE0284B1A68FB6813441033197899
:103C6000284AFB6813440A461A70FB680133FB605C
:103C7000FB68072BEEDDFFF755FE1F4B1B685B68EB
:103C800023F06043812B15D10023BB600DE01A4B5C
:103C90001A68BB681344103319781B4ABB68134475
:103CA0000A461A70BB680133BB60BB68072BEEDDA8
:103CB000FFF76AFE104B1B685B6823F06043822BA2
:103CC00015D100237B600DE00B4B1A687B68134411
:103CD000103319780D4A7B6813440A461A707B68C2
:103CE00001337B607B68072BEEDDFFF775FE00BFBD
:103CF0001037BD4680BD00BFD0B60208C406002004
:103D0000AC060020940600209C060020A40600209B
:103D100080B582B000AF0023FB71114806F02CFA89
:103D20000F4B1B685B6823F06043B3F5101F13D182
:103D30000C4B9B68022B0FD1094B1B681B7CFB7142
:103D4000FB7903F00203002B03D0074B01221A601A
:103D500002E0054B00221A6000BF0837BD4680BD57
:103D600000B70208700700204406002080B582B02A
:103D700000AF0023FB711A4806F0FEF9194B9B684F
:103D8000022B0CD8164B1B685B68C3F31C031A4646
:103D9000144B9B6803F540735B039A420BD0114BA5
:103DA0009B68032B17D10E4B1B685B6823F06043A5
:103DB000B3F5C10F0FD10A4B1B681B7CFB71FB795C
:103DC00003F00803002B03D0074B01221A6002E026
:103DD000054B00221A6000BF0837BD4680BD00BFFA
:103DE000F4B60208700700204006002080B500AF3E
:103DF000054806F0F2F90346002B02D0024806F00F
:103E0000FCF900BF80BD00BF30B7020880B483B0AA
:103E100000AF78600B46FB70FB7801229A407B680C
:103E20005A6000BF0C37BD465DF8047B704780B414
:103E300083B000AF78600B46FB70FB784FF48032A4
:103E40009A407B685A6000BF0C37BD465DF8047B22
:103E5000704780B483B000AF78600B46FB70FB788E
:103E60004FF001129A407B685A6000BF0C37BD4684
:103E70005DF8047B704780B582B000AF78607B68E6
:103E80001A687B681B7C19461046FFF7BFFF00BF0E
:103E90000837BD4680BD80B582B000AF78607B68D2
:103EA0001A687B681B7C19461046FFF7C0FF00BFED
:103EB0000837BD4680BD80B582B000AF78607B68B2
:103EC0001A687B681B7C19461046FFF7C2FF00BFCB
:103ED0000837BD4680BD80B582B000AF78603960DC
:103EE0007B681B683968184603F01EFA00BF083764
:103EF000BD4680BD80B500AFFFF726F9FEF76EFE28
:103F00000023124A012142F2107005F00DF9034618
:103F10001A460F4B1A600E4B1B68184605F0A2F9A3
:103F200000230C4A01210C4805F0FEF803461A460E
:103F30000A4B1A60094B1B68184605F093F9084BA9
:103F40001B685B42074A136000BF80BD693F0208DF
:103F5000EC060020254F020840420F00F00600202A
:103F6000700700205002002080B584B000AF786058
:103F70000023FB60FFF73AF900F0CEFEFEF7A0FE4B
:103F80009B4B9B8803F00803002B03D0994B012225
:103F90001A6002E0974B00221A60964B1B68002BB8
:103FA00040F0C083944B1B68252B00F2748301A260
:103FB00052F823F04D400208AB40020803410208CA
:103FC000A94102089F42020859430208FF43020820
:103FD000AB4302089746020897460208D9440208F4
:103FE000CD45020897460208974602089746020800
:103FF0009746020897460208974602089746020825
:104000009746020897460208974602089746020814
:104010009746020897460208974602089746020804
:1040200097460208974602089746020897460208F4
:1040300097460208974602089746020897460208E4
:104040009746020897460208174602086B4B1B6802
:1040500001336A4A13606A4BDB69684A126893420B
:1040600013D8664B00221A600120FFF719FA654B3E
:104070001B68002B04D0604B03221A6000F038BE8E
:104080005D4B01221A6000F033BE002001F048FAB7
:10409000002001F0F5F8002000F068FF0022002168
:1040A0000020FFF713FA00F023BE544B1B680133C6
:1040B000524A1360544B1B68002B05D0C8220221C2
:1040C0004FF07F40FFF702FA504B1B68002B0CD1DA
:1040D0004F4B1B68002B08D1484B1B68B3F5FA7F88
:1040E0000BDB494B1B68002B07D1434B02221A60A4
:1040F000424B00221A6000F0FBBDFEF7A3FD00F06A
:10410000F7BD012000F032FFF8604FF47A7202210F
:104110004048FFF7DBF9FB68012B14D13E48FFF75D
:10412000AAFE3E48FFF7B7FE3D4805F0AEFB364B12
:1041300001221A60304B03221A60304B00221A60B1
:10414000384B05221A60FB68002B02D10120FEF7D4
:10415000DFFEFB68B3F1FF3F05D1274B15221A6044
:10416000002000F003FFFB6813F1020F05D1224B82
:1041700016221A60002000F0F9FEFB6813F1030F0D
:1041800005D11D4B14221A60002000F0EFFEFB68E1
:1041900013F1040F40F08F85174B01221A600020A5
:1041A00000F0E4FE00F087BD144B1B680133134A96
:1041B0001360124B1B68C72B01DDFEF743FD0F4B4D
:1041C0001B68322B34DD184B1B68002B0AD0174BB1
:1041D0001B68002B06D0002201214FF47F00FFF75F
:1041E00075F92CE0002200210020FFF76FF926E08E
:1041F00068060020D00F0020F406002008070020E9
:10420000700700202C060020F80600203006002051
:10421000340600200000FFFF2CB4020844B5020859
:104220009002002054020020B4060020B0060020B6
:104230004FF4FA7203214FF07F40FFF747F9002057
:10424000FEF766FE964B1B68002B08D1954B1B684A
:10425000002B04D1944B1B68B3F5FA6F11DB934B21
:1042600004221A60924B01221A60924B00221A809B
:104270008D4B00221A60002001F010FD8E4B0022B1
:104280001A608E4B1B68002B04D08D4B1B88092BAA
:1042900040F21385854B01221A6000F00EBD4FF4E9
:1042A000FA7202214FF47F00FFF710F90020FEF7A9
:1042B0002FFE804B1B8801339AB27E4B1A80814BB4
:1042C00000221A60804B00221A60012001F028F9B8
:1042D000F860FB68012B05D1734B00221A60734B09
:1042E00005221A60FB68002B0BD1784B1B68013349
:1042F000764A1360754B1B68312B02DD734B00222D
:104300001A60FB68B3F1FF3F05D1684B15221A60B4
:10431000002001F005F9FB6813F1020F05D1634B92
:1043200016221A60002001F0FBF8FB6813F1030F5E
:1043300005D15E4B17221A60002001F0F1F8FB68EE
:1043400013F1040F40F0BB84002001F0E9F8574B53
:104350000B221A6000F0B3BC0020FEF7D9FD00224A
:1043600001214FF47F00FFF7B1F84D4B1B68002B84
:1043700008D14C4B1B68002B04D14B4B1B68B3F589
:104380007A7F0BDB484B00221A60484B06221A60EA
:104390004F4B00221A80464B00221A60424B1B688A
:1043A0000133414A136000F0A3BC4FF4FA720221BA
:1043B0004FF07F40FFF78AF83B4B1B6801333A4AC6
:1043C0001360374B1B68002B08D1364B1B68002B42
:1043D00004D1354B1B68B3F57A7F0BDB324B0022DF
:1043E0001A60324B06221A60394B00221A80374B72
:1043F00000221A600120FEF78BFD00F079BC4FF41B
:10440000FA7202214FF07F40FFF760F8304B1B88B3
:1044100001339AB22E4B1A80012000F031FFF86070
:10442000FB68012B0BD1214B03221A601E4B00228B
:104430001A60264B00221A60264B05221A60FB6880
:10444000002B02D10120FEF763FDFB68B3F1FF3FB3
:1044500005D1164B15221A60002000F011FFFB68F1
:1044600013F1020F05D1114B16221A60002000F043
:1044700007FFFB6813F1030F05D10C4B17221A60DD
:10448000002000F0FDFEFB6813F1040F40F01984DA
:10449000002000F0F5FE054B0A221A6000F011BC66
:1044A000300600203406002008070020F406002013
:1044B00000070020C80600200C0700202C06002062
:1044C00000060020FC060020100700201407002032
:1044D000CA06002054020020874B1B680133864A1D
:1044E0001360864B1B680133844A1360834B1B683F
:1044F000312B68DD012001F04BFAF8604FF4FA72BD
:1045000002214FF07F40FEF7E1FFFB68012B08D14D
:104510007B4B07221A60794B00221A60794B0022EC
:104520001A60FB68002B02D10120FEF7F1FCFB684A
:10453000B3F1FF3F08D1714B00221A60704B152276
:104540001A60002001F024FAFB6813F1020F08D171
:104550006A4B00221A606A4B16221A60002001F092
:1045600017FAFB6813F1030F08D1644B00221A609D
:10457000634B17221A60002001F00AFAFB6813F15E
:10458000040F08D15D4B00221A60002001F000FAF0
:104590005B4B0B221A605C4B1B68002B09D15B4BF9
:1045A0001B68002B05D1544B1B68B3F57A7FC0F212
:1045B0008A83002001F0ECF9514B06221A604F4B20
:1045C00000221A607FE3FEF73DFB7CE34A4B1B6849
:1045D0000133494A1360FEF735FB0020FEF798FCD3
:1045E000642201214FF47F00FEF770FF464B1B68E9
:1045F000002B09D1454B1B68002B05D13E4B1B6896
:10460000B3F57A7FC0F261833D4B06221A603A4BC4
:1046100000221A6059E3012001F064FBF860FB6896
:10462000012B0ED13A48FFF726FC3A48FFF733FC3E
:10463000394805F02AF9324B03221A602E4B00222A
:104640001A60FB68B3F1FF3F05D12D4B15221A60AC
:10465000002001F047FBFB6813F1020F05D1284B46
:1046600016221A60002001F03DFBFB6813F1030FD6
:1046700005D1234B14221A60002001F033FBFB68A4
:1046800013F1040F40F023831D4B01221A60002018
:1046900001F028FB1BE3184B1B680133164A13601B
:1046A0000020FEF735FCFEF7CDFAC82202214FF0BC
:1046B0007F40FEF70BFF144B1B68002B08D1134BF8
:1046C0001B68002B04D10C4B1B68B3F57A7F02DB0F
:1046D0000B4B06221A60114B1B68002B00F0F9826D
:1046E0000F4B1B68002B00F0F482054B04221A606C
:1046F000044B00221A60ECE2080700201807002093
:10470000F4060020140700203006002034060020A4
:104710002CB4020844B5020890020020B80600201C
:10472000B0060020A24B1B68002B0BD0A14B01222E
:104730001A60A14B00221A600020FEF7B1FE9F4BC9
:1047400000221A609E4B1B68002B05D19D4B9B8855
:1047500003F00403002B08D0964B00221A609A4BFA
:1047600000221A600120FEF79BFE924B1B68002B73
:104770004DD0954B1B68042B50D801A252F823F062
:1047800095470208A1470208BB470208DF47020815
:10479000F94702088C4B1B6801338B4A13603DE0DC
:1047A000834B1B68002B04D0874B1B680133864A60
:1047B00013600020FEF7ACFB30E0844B1B68013334
:1047C000824A1360814B1B68002B22DD7E4B1B68E5
:1047D00001337D4A13607D4B00221A6019E00120ED
:1047E000FEF700FE724B1B68002B14D0764B1B6843
:1047F0000133754A13600EE00020FEF7F3FD6C4BA9
:104800001B68002B09D0704B02221A6005E000BF24
:1048100004E000BF02E000BF00E000BF654B1B6882
:10482000002B40F058820120FEF73AFE624B1B68D5
:10483000062B00F2218201A252F823F05948020807
:104840009B480208EF480208ED4902086F4A020837
:104850002D4B02088B4B0208584B1B680133574AFB
:1048600013605B4BDB69554A1268934206D8534B81
:1048700000221A60504B01221A6039E2002000F039
:104880004FFE002000F0FCFC002000F06FFB002237
:1048900000210020FEF71AFE2AE2484B1B68013374
:1048A000464A1360464B1B68002B05D0424B022240
:1048B0001A60424B00221A60424B9B8803F00403AB
:1048C000002B08D03C4B02221A603C4B00221A609D
:1048D000404B01221A60404B1B68002B00F0FD8109
:1048E000C82202214FF07F40FEF7F0FDF5E14FF4C2
:1048F0007A7202213948FEF7E9FD012000F036FB0B
:10490000F860FB68012B0ED13548FFF7C4FA354833
:10491000FFF7B1FA304B01221A60274B03221A60CD
:104920002C4B00221A60FB68002B11D12E4B1B6808
:1049300001332D4A13602C4B1B68312B05DD2848B1
:10494000FFF7B9FA284B00221A600120FEF7E0FABF
:10495000FB68B3F1FF3F0BD1174B15221A602048BB
:10496000FFF799FA1F48FFF796FA002000F0FEFAC9
:10497000FB6813F1020F08D11948FFF78CFA0E4BB0
:1049800016221A60002000F0F1FAFB6813F1030F01
:1049900040F0A5811248FFF77EFA1248FFF77BFA34
:1049A000054B14221A60002000F0E0FA97E100BFE6
:1049B0003C0600201C070020F40600200807002009
:1049C000300600206806002020070020180700207D
:1049D0007007002004070020F80600200000FFFFF9
:1049E00004B40208F0B3020814070020964B1B68B9
:1049F0000133954A1360944B1B68C72B01DDFEF70A
:104A000021F90020FEF784FA904B1B68002B08D098
:104A10008F4B04221A608F4B00221A808A4B00228F
:104A20001A608D4B9B8803F00403002B0BD0884B3E
:104A300004221A60874B00221A80834B00221A60DE
:104A4000864B01221A604FF47A7203214FF07F40A7
:104A5000FEF73CFD824B1B68002B04D0814B1B886A
:104A6000092B40F23E817A4B01221A6039E14FF462
:104A7000FA7202214FF47F00FEF728FD754B1B8868
:104A800001339AB2734B1A800020FEF741FA0120DD
:104A900000F046FDF860FB68012B0BD16C4B052242
:104AA0001A606E4B00221A606F48FFF7F4F96F48E6
:104AB000FFF7E1F9FB68002B0ED16D4B1B6801334A
:104AC0006B4A13606A4B1B68312B05DD6648FFF7A4
:104AD000F2F9674B00221A60FB68B3F1FF3F05D182
:104AE0005B4B15221A60002000F01AFDFB6813F1E1
:104AF000020F05D1564B16221A60002000F010FD5F
:104B0000FB6813F1030F05D1514B17221A600020E7
:104B100000F006FDFB6813F1040F40F0E480002074
:104B200000F0FEFC4A4B06221A60DCE00022012164
:104B30004FF47F00FEF7CAFC0020FEF7E9F9424B74
:104B40001B680133404A1360404B1B68002B08D0A0
:104B50003F4B06221A60474B00221A803A4B002234
:104B60001A603D4B9B8803F00403002B00F0BD80CE
:104B7000374B06221A603F4B00221A80324B00222C
:104B80001A60364B01221A60AFE04FF4FA7202212C
:104B90004FF07F40FEF79AFC364B1B8801339AB2E8
:104BA000344B1A80012000F06BFBF860FB68012B8E
:104BB0000BD12D48FFF76FF92C48FFF75CF9244B18
:104BC00003221A60254B00221A60FB68002B11D1CA
:104BD000274B1B680133264A1360254B1B68312B7A
:104BE00005DD2148FFF767F9214B00221A600120FB
:104BF000FEF78EF9FB68B3F1FF3F05D1144B152288
:104C00001A60002000F03CFBFB6813F1020F05D195
:104C10000F4B16221A60002000F032FBFB6813F1E4
:104C2000030F05D10A4B17221A60002000F028FB61
:104C3000FB6813F1040F5AD1002000F021FB044B54
:104C400004221A6053E000BF08070020300600204D
:104C5000F4060020C8060020680600200407002093
:104C60002C0600200006002004B40208F0B302085D
:104C700014070020CA060020234B1B680133224A78
:104C80001360214B1B68092B05DD2048FFF713F942
:104C90001D4B00221A600120FEF73AF90020FEF7B2
:104CA000FFFB0020FEF79EFBC82202214FF07F4051
:104CB000FEF70CFC1CE000BF1AE000BF18E000BFCC
:104CC00016E000BF14E000BF12E000BF10E000BF1C
:104CD0000EE000BF0CE000BF0AE000BF08E000BF2C
:104CE00006E000BF04E000BF02E000BF00E000BF3C
:104CF00000F03EF800F020F8054B1B68054A1360F1
:104D000000BF1037BD4680BD1407002018B402084C
:104D1000B00600202407002080B500AFFEF7B4FAEB
:104D2000FEF70CFBFEF7DCFAFEF744FBFEF794FA05
:104D3000FEF722FB00BF80BD80B500AF0A4B1B68A9
:104D40000133094A1360084B1B68092B03DC074B2E
:104D50001B68002B06D0FEF783FE034B00221A606F
:104D6000FEF7C6FD00BF80BD2807002034060020E6
:104D700080B584B000AF554B1B68042B13D0534B48
:104D80001B68062B0FD0514B1B680A2B0BD04F4BC7
:104D90001B680B2B07D04D4B1B68022B03D04C4BD1
:104DA0001B68002B24D04B4BFB604B4B5A88FB6895
:104DB0001A804A4BFB60484B9A88FB681A80484B24
:104DC000FB60454B1A88FB681A80464B5B6A7B8107
:104DD000454BFB60FB687A891A8064214348FFF7E2
:104DE0007AF83C49414805F0D9F9404805F0B2F954
:104DF0003F4B1B88DAB23F4B1A703D4B5B88DAB2EF
:104E00003C4B5A703A4B9B88DAB23A4B9A70384B0B
:104E1000DB88DAB2374BDA70374BFB60344B1A89D8
:104E2000FB681A80354BFB60284B1B689AB2FB6805
:104E30001A8066213248FFF74EF82E49304805F0B7
:104E4000ADF92F4805F086F92E4B1B6801332D4A2A
:104E500013602C4B1B68092B33DD2A4B00221A6090
:104E6000294B1B88294AA2FB0323DB087B817B8912
:104E70007B72274A7B7A1370264B1B88234AA2FB3E
:104E80000323DB087B817B897B72214A7B7A537009
:104E9000214BFB60134B5B6A7B81FB687A891A802C
:104EA0001E4B7B600F4B9A697B681A6065211C481A
:104EB000FFF711F816491A4805F070F9184805F07F
:104EC00049F900BF1037BD4680BD00BFF406002081
:104ED000D00F0020D406002000060020D6060020B7
:104EE000D806002070070020DA06002010B802085B
:104EF00068060020E4060020E8060020EA060020FC
:104F000028B802082C070020C8060020CDCCCCCC45
:104F1000DC060020CA060020DE060020E006002095
:104F20001CB8020880B584B000AF78600C4B1B68D9
:104F300001330B4A13600A4B1B68B3F5967F0BDBFA
:104F4000084B1B68032B07D1074800F0D2FF03462C
:104F5000FB73034B00221A6000BF1037BD4680BDB3
:104F600030070020F40600207007002080B584B0D0
:104F700000AF78600023FB60A34B1B680133A24A9B
:104F80001360A14B1B68B3F5FA6F0DDBFDF75AFEFA
:104F90009E4B00221A609C4B00221A609C4B002200
:104FA0001A604FF0FF3360E19A4B5B8840F2DB52AE
:104FB00093420DD9FDF746FE944B00221A60924BA6
:104FC00000221A60924B00221A606FF001034CE13C
:104FD0007B68002B0CD1FDF735FE8C4B00221A604C
:104FE000894B00221A608A4B00221A6000233CE1A0
:104FF000864B1B68052B00F2318101A252F823F089
:10500000195002085550020873500208D750020880
:10501000A75102082D520208FDF74CFE2820FDF78B
:105020003CFE4FF4FA70FDF71EFE0A20FDF728FE45
:10503000794B1B68962202FB03F31846FDF708FE26
:10504000FDF7FAFD714B1B680133704A13600023B2
:10505000FB6009E16F4B5B88C72B40F20281FDF7D3
:10506000F1FD6A4B1B680133684A13600023FB6043
:10507000F7E00120FEF7B6F9654B1B680133644A7F
:105080001360634B1B68132B16DDFDF713FE3C20EA
:10509000FDF703FE4FF4FA70FDF7E5FD0A20FDF77A
:1050A000EFFD5D4B1B684FF4967202FB03F318464D
:1050B000FDF7CEFDFDF7C0FD554B1B68162B07DD38
:1050C000534B00221A60514B1B6801334F4A136047
:1050D0000023FB60C8E04F4B5B88B3F5FA6F07D342
:1050E0004E4B1B68002B03D14D4B1B68002B03D08C
:1050F0004C4B1B68002B08D00120FEF773F9FDF71D
:10510000A1FD6FF00303FB6001E00023FB60444B53
:105110001B68002B08D1414B1B68002B04D03D4B72
:105120005B88B3F5967F15D23D4B1B68002B04D0EE
:10513000384B5B88B3F5967F0CD2394B1B68002B3C
:1051400029D0344B5B88B3F5967F24D3364B1B684C
:10515000002B20D00020FEF745F94FF49670FDF7A4
:1051600082FD0A20FDF78CFD1420FDF796FD2A4BE9
:105170001A6813469B0013445B001846FDF768FD50
:10518000FDF75AFD214B1B680133204A1360204B69
:1051900000221A6067E0214B1B68002B63D00020BF
:1051A000FEF720F95FE00020FEF71CF9184B1B68A2
:1051B0000133174A1360164B1B68132B21DD154B67
:1051C00000229A600520FDF768FD6420FDF74BFD85
:1051D0000120FDF755FD104B1A6813469B00134440
:1051E0001846FDF735FD0023FB60094B00221A60CD
:1051F000054B00221A60054B1B680133034A1360FC
:1052000032E00023FB602FE0340700203807002045
:105210003C07002000060020700700202C0600201C
:10522000D00F00202806002004070020114B1B6827
:105230000133104A13600F4B1B68042B0BDD0D4B21
:1052400000221A600123FB600B4B00221A600B4BFB
:1052500000221A6008E00023FB6005E06FF0020303
:1052600003E000BF00E000BFFB6818461037BD46F2
:1052700080BD00BF3C070020340700203807002015
:1052800080B584B000AF78600023FB609E4B1B6844
:1052900001339D4A13609C4B1B68B3F57A7F0DDB8D
:1052A000FDF7D0FC994B00221A60974B00221A6040
:1052B000974B00221A604FF0FF3321E1954B5B883A
:1052C00040F2DB5293420DD9FDF7BCFC8F4B00221C
:1052D0001A608D4B00221A608D4B00221A606FF00D
:1052E00001030DE17B68002B0CD1FDF7ABFC874B74
:1052F00000221A60844B00221A60854B00221A603B
:105300000023FDE0814B1B68022B00F0C980022BBB
:1053100000F3F280002B02D0012B2AD0ECE0012018
:10532000FEF760F87A4B1B680133794A1360784BBB
:105330001B68132B1ADD764B00221A60734B012277
:105340001A605F20FDF7A9FC4FF47A70FDF78BFC23
:105350000A20FDF795FC704B1B684FF4966202FB28
:1053600003F31846FDF774FCFDF766FC0023FB60B1
:10537000C5E0684B1B8840F23A22934210D8654B37
:105380001B88962B0CD9644B1B684FF4967202FB5A
:1053900003F31846FDF75CFCFDF74EFC0023FB60B1
:1053A0005C4B1B88962B19D85A4B1B88142B15D98C
:1053B0004FF4FA70FDF757FC0520FDF761FC564BE2
:1053C0001B68962202FB03F31846FDF741FC5A20A6
:1053D000FDF763FCFDF730FC0023FB604F4B1B68BF
:1053E000002B2AD14B4B5B8840F2DB52934208D909
:1053F000484B1B881A46484B5B6AA3F5C8739A4210
:105400001BD2444B1B88C82B04D8424B5B88B3F596
:10541000167F12D23F4B1B881A463F4B5B6AA3F59F
:10542000C8739A4212D23B4B1B88C82B0ED9394BFA
:105430005B8840F24B42934208D90120FDF7D2FF2E
:10544000FDF700FC6FF00303FB6001E00023FB604D
:10545000304B1B88022B1FD80020FDF7C3FF6420B0
:10546000FDF701FC0120FDF70BFC2B4B1A681346DE
:105470009B0013449B001846FDF7EAFB0520FDF74F
:105480000CFCFDF7D9FB214B02221A600023FB60C4
:105490001F4B00221A6032E00120FDF7A3FF2EE02F
:1054A0000020FDF79FFF1A4B1B680133184A136059
:1054B000174B1B68132B1CDD0A20FDF7EEFB642045
:1054C000FDF7D1FB0120FDF7DBFB134B1A681346F8
:1054D0009B0013441846FDF7BBFB0C4B00221A60DF
:1054E0000B4B00221A600123FB60074B00221A605D
:1054F00005E00023FB6002E06FF0020300E0FB68C0
:1055000018461037BD4680BD4007002044070020E4
:105510004807002000060020700700202806002011
:1055200080B584B000AF78600023FB60A14B1B689E
:105530000133A04A13609F4B1B68B3F5FA6F0DDB74
:10554000FDF780FB9C4B00221A609A4B00221A60E8
:105550009A4B00221A604FF0FF3306E2984B5B88AB
:1055600040F6330293420DD9FDF76CFB924B0022BB
:105570001A60904B00221A60904B00221A606FF064
:105580000103F2E17B68002B0CD1FDF75BFB8A4B3A
:1055900000221A60894B00221A60864B00221A6092
:1055A0000023E2E1844B1B68042B00F2DA8101A2A4
:1055B00052F823F0C95502086F560208C358020872
:1055C000EB5802081F5902080120FDF70BFF7B4B27
:1055D0001B680133794A1360784B1B680A2B01DC86
:1055E000FDF730FB754B1B680A2B19DD734B1B68ED
:1055F000142B15DC3C20FDF750FBFDF75BFB4FF453
:105600007A70FDF730FB0A20FDF73AFB6D4B1A6804
:1056100013469B0013441846FDF71AFBFDF70CFBDD
:10562000664B1B68142B1FDD2820FDF736FBFDF7AA
:1056300041FB4FF47A70FDF716FB0A20FDF720FBC3
:10564000614B1B684FF4967202FB03F31846FDF79B
:10565000FFFAFDF7F1FA584B01221A60574B00226E
:105660001A600120FDF7BEFE0023FB607CE1554B74
:105670005B6A002B00F0AA80514B1B88632B21D959
:105680004F4B1B881A464F4B5B6AFA3B9A4219D222
:10569000FDF710FB0120FDF7A5FE4FF4FA70FDF7B2
:1056A000E2FA1420FDF7ECFA474B1B684FF49662C0
:1056B00002FB03F31846FDF7CBFA5020FDF7EDFA95
:1056C000FDF7BAFA3E4B1B881A463E4B5B6AA3F5C0
:1056D00096739A421ED33A4B1B881A46394B5B6A23
:1056E000783B9A4216D21E20FDF7D7FA6420FDF7C8
:1056F000BAFA0520FDF7C4FA334B1B684FF4C872A1
:1057000002FB03F31846FDF7A3FA2820FDF7C5FABC
:105710000023FB602A4B1B88B3F5C87F0CD3284BB2
:105720001B881A46274B5B6AC83B9A4204D8244B15
:105730005B88B3F57A7F10D2214B1B881A46214B28
:105740005B6AC83B9A4203D91D4B5B88C72B04D8C0
:105750001B4B5B88B3F5FA6F08D30120FDF742FEBF
:10576000FDF770FA6FF00303FB6001E00023FB60BC
:10577000134B1B881A46134B5B6A783B9A42C0F066
:105780009D80C820FDF76FFA0520FDF779FA0E4BD2
:105790001B68642202FB03F31846FDF759FA142034
:1057A000FDF77BFAFDF748FA034B02221A6000234B
:1057B000FB6083E04C0700205007002054070020C6
:1057C0000006002070070020500200200120FDF795
:1057D00009FE684B1B88632B1ED9664B1B88B3F5EB
:1057E0007A7F19D2FDF766FA0120FDF7FBFD4FF431
:1057F0007A70FDF738FA0A20FDF742FA5E4B1B6813
:105800004FF4167202FB03F31846FDF721FA462007
:10581000FDF743FAFDF710FA564B1B88B3F57A7F74
:105820001AD3544B1B8840F21352934214D8FDF7FD
:1058300041FAC820FDF717FA0A20FDF721FA4E4B6E
:105840001B68C82202FB03F31846FDF701FA282063
:10585000FDF723FAFDF7F0F9464B1B8840F213528F
:10586000934216D9434B5B88632B12D9434B1B6879
:10587000002B0ED1FDF7E6F93E4B1B881A46404B34
:105880005A623F4800F035FB3E4B03221A6000236A
:10589000FB60384B1B8840F2135293420ED9354BB4
:1058A0005B88312B0AD9354B1B68002B06D0FDF7DE
:1058B000C9F9344B03221A600023FB600023FB600C
:1058C00052E02C4B1B881A462D4B5B6A053B9A42D3
:1058D00003D2284B5B88632B04D9FDF7B3F9294B1E
:1058E00003221A600023FB603EE0274B1B68013354
:1058F000254A1360244B1B68092B0DDD0020FDF7A2
:1059000071FDFDF79FF91F4B04221A601E4B002208
:105910001A600023FB6027E00023FB6024E01A4BA1
:105920001B680133184A1360174B1B68002B15DDE9
:105930000020FDF757FDFDF785F9124B00221A6094
:10594000114B00221A600123FB60104B00221A60E9
:105950000B4B9B6901330A4A936105E00023FB600E
:1059600002E06FF0020300E0FB6818461037BD4606
:1059700080BD00BF0006002050020020D00F002094
:105980007007002050070020540700204C0700201B
:1059900080B584B000AF78600023FB609F4B1B682C
:1059A00001339E4A13609D4B1B68B3F57A7F0DDB74
:1059B000FDF748F99A4B00221A60984B00221A60B2
:1059C000984B00221A604FF0FF335AE1964B5B88E8
:1059D000B3F5966F0DD3FDF735F9914B00221A60A0
:1059E0008E4B00221A608F4B00221A606FF0010369
:1059F00047E17B68002B0CD1FDF724F9884B00228E
:105A00001A60884B00221A60844B00221A6000231F
:105A100037E1834B1B68042B00F22E8101A252F860
:105A200023F000BF395A02088F5A0208A95B020806
:105A3000E75B0208355C02080120FDF7D3FC794BD7
:105A40001B680133774A1360764B1B68322B1BDDD2
:105A5000FDF730F94FF4FA60FDF705F91420FDF772
:105A60000FF9724B1B68C82202FB03F31846FDF7BF
:105A7000EFF8FDF7E1F86A4B01221A60694B00224A
:105A80001A600120FDF7AEFC0023FB60F8E0664BD6
:105A90001B88272B1FD9644B1B881A46644B5B6AF3
:105AA000A3F5FA739A4216D2FDF704F90120FDF727
:105AB00099FC4FF47A70FDF7D6F80A20FDF7E0F86C
:105AC0005A4B1B684FF47A7202FB03F31846FDF73A
:105AD000BFF8FDF7B1F8544B1B881A46544B5B6A6C
