:020000040C02EC
:1000000049443D444F4F525F4543555F584D43343B
:10001000353030000000000000000000000000004B
:1000200056657273696F6E3D302E302E30000000C1
:1000300000000000000000000000000000000000C0
:10004000446576656C6F706572733D536D69726E51
:100050006F7620442E412E3B204B6172626F767387
:100060006B697920442E412E000000000000000042
:100070000000000000000000000000000000000080
:100080005075626C69736865723D504B4453000053
:100090000000000000000000000000000000000060
:1000A0000000000000000000000000000000000050
:1000B0000000000000000000000000000000000040
:1000C0004C6963656E73653D000000000000000030
:1000D0000000000000000000000000000000000020
:1000E0000000000000000000000000000000000010
:1000F0000000000000000000000000000000000000
:10010000436F6E74616374733D0000000000000073
:1001100000000000000000000000000000000000DF
:1001200000000000000000000000000000000000CF
:1001300000000000000000000000000000000000BF
:1001400000000000000000000000000000000000AF
:10015000000000000000000000000000000000009F
:10016000000000000000000000000000000000008F
:10017000000000000000000000000000000000007F
:1001800048617264576172653D0000000000000024
:10019000000000000000000000000000000000005F
:1001A000000000000000000000000000000000004F
:1001B000000000000000000000000000000000003F
:1001C000000000000000000000000000000000002F
:1001D000000000000000000000000000000000001F
:1001E000000000000000000000000000000000000F
:1001F00000000000000000000000000000000000FF
:100200004465736372697074696F6E3D000000002D
:1002100000000000000000000000000000000000DE
:1002200000000000000000000000000000000000CE
:1002300000000000000000000000000000000000BE
:1002400000000000000000000000000000000000AE
:10025000000000000000000000000000000000009E
:10026000000000000000000000000000000000008E
:10027000000000000000000000000000000000007E
:10028000000000000000000000000000000000006E
:10029000000000000000000000000000000000005E
:1002A000000000000000000000000000000000004E
:1002B000000000000000000000000000000000003E
:1002C000000000000000000000000000000000002E
:1002D000000000000000000000000000000000001E
:1002E000000000000000000000000000000000000E
:1002F00000000000000000000000000000000000FE
:1003000045787472613D00000000000000000000AC
:1003100000000000000000000000000000000000DD
:1003200000000000000000000000000000000000CD
:1003300000000000000000000000000000000000BD
:1003400000000000000000000000000000000000AD
:10035000000000000000000000000000000000009D
:10036000000000000000000000000000000000008D
:10037000000000000000000000000000000000007D
:10038000000000000000000000000000000000006D
:10039000000000000000000000000000000000005D
:1003A000000000000000000000000000000000004D
:1003B000000000000000000000000000000000003D
:1003C000000000000000000000000000000000002D
:1003D000000000000000000000000000000000001D
:1003E000000000000000000000000000000000000D
:1003F00000000000000000000000000000000000FD
:100400000008001001060208B1060208B106020841
:10041000B1060208B1060208B10602080000000099
:10042000000000000000000000000000B10602080B
:10043000B106020800000000B1060208218F020880
:10044000B1060208B1060208B1060208B1060208A8
:10045000B1060208B1060208B1060208B106020898
:10046000B1060208000000000000000000000000CB
:10047000B10602080000000031200208B10602089F
:100480008DAC0208B1060208B1060208B1060208E6
:10049000B1060208B1060208B1060208B106020858
:1004A000B1060208B1060208B1060208B106020848
:1004B000B1060208B1060208B1060208B106020838
:1004C000B1060208B1060208B1060208B106020828
:1004D000B1060208B1060208B1060208B106020818
:1004E000B1060208B1060208B1060208B106020808
:1004F000B1060208B1060208B1060208B1060208F8
:10050000B1060208B1060208B1060208B1060208E7
:10051000B1060208B1060208B1060208B1060208D7
:100520002DAC02084DAC0208953002087530020867
:10053000890B0010B1060208B1060208B1060208D4
:10054000B1060208B1060208B1060208B1060208A7
:10055000290D0010F50D0010B1060208B1060208C1
:10056000000000000000000000000000000000008B
:10057000B93E0208DDAC020805AE0208DD3D020806
:10058000B1060208393E0208E93C0208B106020839
:10059000B1060208B1060208B1060208B106020857
:1005A000B1060208B1060208B1060208B106020847
:1005B000B1060208B1060208B1060208B106020837
:1005C000B1060208B1060208B1060208B106020827
:1005D000B1060208B1060208B106020800000000D8
:1005E000B1060208B1060208B1060208B106020807
:1005F000B106020800000000B10602080000000079
:10060000DFF88CD023488047234C244DAC4209DAD4
:1006100021686268A368043BA2BFC858D050FAE7BB
:100620000C34F3E71E4B1F4CA34208DA19685A68D2
:100630000020043AA4BF8850FBE70833F4E71A48C7
:1006400080471A48804700001CC2020C00000020AE
:10065000F805000014C8020C000000300000000083
:100660001CC2020CC0110010000000005CB8020C9B
:1006700000080010C0090000F8050020100B000061
:100680000000003000000000C01100100000000059
:1006900000080010B506020848060208780602089D
:1006A000780602089006020831AF020899AE0208E7
:1006B000FEE7000098B500AF064A4FF0005314461D
:1006C0000FCB84E80F0009F083FA09F0EFFA00BFBE
:1006D00098BD00BFC4FF002080B584B000AF2F4B91
:1006E000DB6803F48033002B3ED02D4BDB6803F036
:1006F0000103002B02D02B4BFB6002E009F0CCFA87
:10070000F860274B1B6803F00403002B20D0244B18
:100710009B681B0E03F00F0301337B60204B9B682B
:100720001B0A03F07F0301333B601D4B9B681B0CCE
:1007300003F07F030133BB607B68BA6802FB03F3FD
:10074000FA68B2FBF3F23B6802FB03F3FB600DE0D7
:10075000134B9B6803F07F030133BB60FA68BB68EF
:10076000B2FBF3F3FB6001E00E4BFB600B4BDB686D
:10077000DBB20133FA68B2FBF3F3FB60074B1B6992
:1007800003F001030133FA68B2FBF3F3FB60064A9E
:10079000FB68136000BF1037BD4680BD00460050A7
:1007A0001047005000366E01C0FF002080B483B0B7
:1007B00000AF78607B68D3F8043143F400727B6843
:1007C000C3F8042100BF0C37BD465DF8047B7047B9
:1007D00080B483B000AF786039603A687B68C3F852
:1007E000102100BF0C37BD465DF8047B704780B414
:1007F00085B000AFF860B9607A607B681968FB6803
:10080000BA68A03243F8221000BF1437BD465DF825
:10081000047B704780B483B000AF786039607B6838
:100820003A68C03253F822309BB218460C37BD46A6
:100830005DF8047B704780B584B000AF78603960A4
:1008400039687868FFF7E6FF0346FB81FB891846A5
:100850001037BD4680BD000080B500AF0D4A0521B0
:100860000D4808F08DF80D4A05210B48FFF7BFFF32
:100870000B4B19680848FFF7ABFF41F605720021E2
:10088000054807F085FF04220521034808F0DEF83B
:1008900000BF80BD8000002000500040F80500200F
:1008A0007C00002080B586B000AF00237B610F2361
:1008B000FB6000237B6100233B6119E01348FFF7D5
:1008C00075FF00237B6002E07B6801337B607B68FF
:1008D000FA689A42F8D805210C48FFF7ACFF0346A6
:1008E000BB607A69BB6813447B613B6901333B6140
:1008F0003B690F2BE2D97B691B09BB60BB68044ACB
:10090000136000BF1837BD4680BD00BF00500040D7
:100910002401002080B483B000AF7860064BDA6C0D
:100920007B68DB4304491340CB6400BF0C37BD46F2
:100930005DF8047B704700BF0040005080B483B076
:1009400000AF78600B46FB70FB7801229A407B6811
:100950005A6000BF0C37BD465DF8047B704780B419
:1009600083B000AF78600B46FB70FB784FF48032A9
:100970009A407B685A6000BF0C37BD465DF8047B27
:10098000704780B500AF4FF48070FFF7C3FF00BF22
:1009900080BD80B483B000AF78600B46FB707B688D
:1009A000DA6CFB781A437B68DA6400BF0C37BD460B
:1009B0005DF8047B704780B483B000AF78600B466D
:1009C000FB707B68DA6CFB78DB431A407B68DA6487
:1009D00000BF0C37BD465DF8047B704780B500AFA3
:1009E00000F0ACFA00F0E0FA00F028FB034B5B8A61
:1009F00001339AB2024B1A8400BF80BD6800002008
:100A0000D000002080B500AF00F01CF8FFF7B9FF60
:100A100000BF80BD80B500AF084B5B7B012B03D1CD
:100A20000B210748FFF78AFF044B5B7B022B03D1A6
:100A30000B210348FFF793FF00BF80BDD0000020CB
:100A40000082024880B500AF084B5B7B012B03D1CD
:100A50000B210748FFF783FF044B5B7B022B03D17D
:100A60000B210348FFF76AFF00BF80BDD0000020C4
:100A70000082024880B483B000AF0346FB7197F94F
:100A80000730002B0CDBFB7903F01F02074997F9B5
:100A900007305B09012000FA02F2603341F823209D
:100AA00000BF0C37BD465DF8047B704700E100E0F5
:100AB00080B483B000AF78607B680122DA6000BF49
:100AC0000C37BD465DF8047B704780B483B000AF3F
:100AD00078607B6801221A6100BF0C37BD465DF863
:100AE000047B704780B483B000AF78607B680222DB
:100AF0001A6100BF0C37BD465DF8047B704780B4B7
:100B000083B000AF78607B6801229A6000BF0C3729
:100B1000BD465DF8047B704780B483B000AF786059
:100B20007B680322DA6000BF0C37BD465DF8047BAA
:100B3000704780B483B000AF78600B46FB707B6871
:100B40005A6AFB7822FA03F303F0010318460C37C4
:100B5000BD465DF8047B704780B400AF124B0022A5
:100B600083F82920104B0022DA610F4B00221A6013
:100B70000D4B00225A600C4B00229A600A4B002257
:100B8000DA60094B00221A61074B00225A61064BBA
:100B90005B6A054A9361044B00221A6200BFBD469E
:100BA0005DF8047B704700BFF800002080B500AFFF
:100BB00000F010FB00F0C4F800F028FA00BF80BD80
:100BC00080B500AFFFF7C8FF0648FFF798FF06485B
:100BD000FFF788FF0548FFF785FF0448FFF768FF28
:100BE00000BF80BD0080024000C1004000C2004044
:100BF00080B500AF0648FFF78FFF4420FFF73AFFAC
:100C00000448FFF762FF0448FFF75FFF00BF80BDA5
:100C10000080024000C1004000C2004080B584B0A6
:100C200000AF3B4600221A605A609A6003211148C7
:100C3000FFF77FFF03463B6002210E48FFF779FF75
:100C400003467B603A687B685B001343FB600121CD
:100C50000848FFF76EFF0346BB60BB689B00FA685D
:100C60001343FB60FB6803F0070318461037BD46CB
:100C700080BD00BF0081024880B483B000AF7860BF
:100C80000B46FB70FB7801229A407B68DA6000BF5C
:100C90000C37BD465DF8047B704780B483B000AF6D
:100CA00078600B467B807A887B685A6300BF0C377C
:100CB000BD465DF8047B704780B483B000AF7860B8
:100CC0000B467B807A887B68DA6300BF0C37BD46B1
:100CD0005DF8047B704780B483B000AF7860396002
:100CE0007B683A681A6100BF0C37BD465DF8047B2B
:100CF000704780B483B000AF78607B685B6943F471
:100D000080327B685A6100BF0C37BD465DF8047BBA
:100D1000704780B483B000AF78600B46FB707B688F
:100D2000D3F8A420FB78012101FA03F31A437B686E
:100D3000C3F8A42000BF0C37BD465DF8047B7047A4
:100D400080B500AF0021044806F0B4FC00F006F8BE
:100D500000F03EF800BF80BD00C0004080B500AF8D
:100D60001649174806F0E1FC164B1B881946144833
:100D7000FFF7A2FF134B5B8819461148FFF78DFF61
:100D800001211148FFF7A7FF104A01210C4806F086
:100D9000FFFE012201210A4806F025FD00210A4834
:100DA000FFF76AFF00220021054806F08BFF0021B3
:100DB0000348FFF7AEFF00BF80BD00BF400000202A
:100DC00000C100404C00002000C00040480000204E
:100DD00080B500AF0C490D4806F0DEFC05210B483C
:100DE00006F052FF0948FFF784FF094A012107482E
:100DF00006F0CEFE0121054806F0E0FD0121054880
:100E0000FFF73AFF00BF80BD5000002000C2004045
:100E10005800002000C0004080B483B000AF78606C
:100E20000B46FB70FB7801229A407B68DA6000BFBA
:100E30000C37BD465DF8047B704780B483B000AFCB
:100E4000786039607B683A681A6100BF0C37BD462C
:100E50005DF8047B704780B483B000AF78600B46C8
:100E6000FB707B68D3F8A420FB78012101FA03F31F
:100E70001A437B68C3F8A42000BF0C37BD465DF859
:100E8000047B704780B582B000AF78600B46FB7082
:100E90001346BB70BA78FB781946786807F000F9FA
:100EA000FB7819467868FFF7D6FF00BF0837BD46C4
:100EB00080BD000080B584B000AF7860194A7B68BF
:100EC00052F82330FB60174A7B6813440C331B78BD
:100ED00019461548FFF7A0FF1449F86806F0BBFF54
:100EE000104B5B8A1946F86807F0B3F8104A0121E5
:100EF000F86807F044F801220121F86806F0E5FFE0
:100F00000C4A0221F86807F03AF802220221F86838
:100F100007F009F80849F86807F02CF900BF103706
:100F2000BD4680BD6800002000000240E0AF02081E
:100F3000D8AF0208DCAF02085C00002080B582B0A8
:100F400000AF0021164806F067FF00237B6005E034
:100F50007868FFF7AFFF7B6801337B607B68022B0B
:100F6000F6D9104B1B68002201211846FFF78AFFB3
:100F70000C4B5B68022205211846FFF783FF094BE3
:100F80005B68084A128A0121184607F071F840F29E
:100F900011110348FFF751FF00BF0837BD4680BD60
:100FA000000002406800002080B500AF0F4A092110
:100FB0000F4805F085FA0F4A0E210F4805F080FA18
:100FC0000E4A0A210A4805F07BFA0D4A0F210A4809
:100FD00005F076FA0B4A0B21054805F071FA0A4A2A
:100FE0000821034805F06CFA00BF80BDF0AF02088D
:100FF00000850248FCAF02080082024808B00208DF
:1010000014B0020820B002082CB0020880B500AF6E
:10101000084A0321084805F053FA064A0221064807
:1010200005F04EFA034A0121034805F049FA00BFD2
:1010300080BD00BF38B002080081024880B500AF13
:10104000034A0B21034805F03BFA00BF80BD00BFF7
:1010500044B002080082024880B400AF044BDB6851
:101060001B0A03F007031846BD465DF8047B704772
:1010700000ED00E080B483B000AF0346FB7197F948
:101080000730002B0BDBFB7903F01F02074997F9B0
:1010900007305B09012000FA02F241F8232000BF6B
:1010A0000C37BD465DF8047B704700BF00E100E0EF
:1010B00080B483B000AF03463960FB7197F9073005
:1010C000002B0ADB3B68DAB20C4997F90730920033
:1010D000D2B20B4483F800230AE03B68DAB2084935
:1010E000FB7903F00F03043B9200D2B20B441A7653
:1010F00000BF0C37BD465DF8047B704700E100E09F
:1011000000ED00E080B489B000AFF860B9607A60AB
:10111000FB6803F00703FB61FB69C3F10703062BC0
:1011200028BF0623BB61FB690633062B02D9FB6986
:10113000013B00E000237B614FF0FF32BB6902FA04
:1011400003F3DA43BB681A407B699A404FF0FF31E2
:101150007B6901FA03F3D9437B680B4013431846BC
:101160002437BD465DF8047B704780B584B000AF7E
:101170000346B9607A60FB73FFF76EFF03467A6837
:10118000B9681846FFF7BEFF024697F90F301146BF
:101190001846FFF78DFF97F90F301846FFF76AFFE3
:1011A00000BF1037BD4680BD80B483B000AF78600B
:1011B0000B46FB707B685A6FFB78012101FA03F341
:1011C0001A437B685A6700BF0C37BD465DF8047B45
:1011D0007047000080B500AF1449154807F086F845
:1011E0001449134807F0B4F81349114807F091F86F
:1011F000002200210E4807F0CAF8002201210C4805
:1012000007F0C5F801220421094807F0C0F80021C1
:101210000748FFF7C9FF01210548FFF7C5FF042173
:101220000348FFF7C1FF00BF80BD00BF54B00208F4
:101230000080024058B0020850B0020880B483B069
:1012400000AF78600B46FB707B68D3F8043123F065
:1012500003027B68C3F804217B68D3F80421FB7880
:101260001A437B68C3F8042100BF0C37BD465DF804
:10127000047B704780B483B000AF78607B68D3F89C
:10128000043143F480627B68C3F8042100BF7B68AB
:10129000D3F8083103F02003002BF8D000BF00BFC3
:1012A0000C37BD465DF8047B7047000080B500AF89
:1012B0000E494FF0402007F015F903210C4807F0C4
:1012C0004BFA0C49002300220968094807F0E7F9A6
:1012D0000949074807F006FB01210548FFF7AEFF63
:1012E0000348FFF7C7FF00BF80BD00BF5CB0020826
:1012F0000050004074B0020878B0020880B483B097
:1013000000AF786039607B683A681A6100BF0C37BB
:10131000BD465DF8047B704780B483B000AF786051
:101320007B68D3F80031DBB25B11DBB203F007035B
:10133000DBB218460C37BD465DF8047B704780B4BD
:1013400083B000AF786039607B683A68C03253F888
:1013500022309BB218460C37BD465DF8047B7047BF
:1013600080B584B000AF0346FB80FB881A4AD28C5C
:1013700002FB03F39B13FB81174B1B685A8AFB8903
:10138000D31A9AB2144B9A84134AFB895384124B92
:101390009B7B114A0C335B001344DA880F4BDA63F2
:1013A0000D4BDB7B0C4A0C335B001344DA880C4B8F
:1013B000DA63094B1B7C084A0C335B001344DA8860
:1013C000084BDA6340F211110748FFF797FF00BF9F
:1013D0001037BD4680BD00BFD00000200003024092
:1013E00000020240000102400000024080B400AF51
:1013F000124B002283F82920104B0022DA610F4B98
:1014000000221A600D4B00225A600C4B00229A6099
:101410000A4B0022DA60094B00221A61074B0022B6
:101420005A61064B5B6A054A9361044B00221A62BB
:1014300000BFBD465DF8047B704700BFF800002088
:1014400080B582B000AF0548FFF766FF0346FB7129
:10145000FB7918460837BD4680BD00BF00800240BA
:1014600080B584B000AF7860396039687868FFF77C
:1014700066FF0346FB81FB8918461037BD4680BDD9
:1014800080B487B000AFF860B9607A60FA68BB6872
:101490009A4202DDBB687B6108E0FA687B689A4289
:1014A00002DA7B687B6101E0FB687B617B6918463F
:1014B0001C37BD465DF8047B704790B583B000AF24
:1014C000786039607B681A697B681B68796809698C
:1014D00009143868411A01FB03F3D4187B68996832
:1014E0007B68DB681A462046FFF7CAFF02467B6826
:1014F0001A617B681B691A147B685A6100BF0C373C
:10150000BD4690BD80B584B000AF7860052121480C
:10151000FFF7A6FF0346FB601F4B1B68FA68D31A50
:101520001D4A926802FB03F39B13FB60F9681B489A
:10153000FFF7C3FF194B5B69FB60174B93F8203033
:10154000012B1CD1144BDB690133134AD361124BBD
:10155000DA69114B9B699A420CD97B68FA681A6068
:101560000D4AFB6813610C4B0022DA610A4B002222
:1015700083F82020084B1A697B681A6005E07B68B5
:10158000FA681A60044AFB68136100BF1037BD4651
:1015900080BD00BF0050004024010020A4000020B6
:1015A00080B584B000AF786005210F48FFF758FF81
:1015B0000346FB600D4B1B68FA68D31A0B4A92680E
:1015C00002FB03F39B13FB60084B5B691B681A4625
:1015D000FB6802FB03F39B13FB607B68FA681A60ED
:1015E00000BF1037BD4680BD0050004024010020E0
:1015F00080B487B000AFF860B9607A60FA68BB6801
:101600009A4202DDBB687B6108E0FA687B689A4217
:1016100002DA7B687B6101E0FB687B617B691846CD
:101620001C37BD465DF8047B704780B485B000AFC1
:10163000786039607A683B689A4202D10123FB7373
:1016400001E00023FB73FB7B18461437BD465DF8B1
:10165000047B704790B583B000AF786039603C6818
:101660007B685B8A04FB03F37A68527D03FB02F21A
:101670007B685B681A447B685A607B681B8A03FB43
:1016800004F27B685B6813447A68127D43FA02F4C3
:101690007B68D9687B689B681A462046FFF7A8FFDD
:1016A00002467B681A607B681B6819462046FFF774
:1016B000BCFF03461A467B685A7500BF0C37BD460F
:1016C00090BD000080B584B000AF78600C4BDB6E3D
:1016D0000C4AD3600C4B1B680A4A9360094B9A680A
:1016E000084BDB68D31AFB60F9680848FFF7B2FFC4
:1016F000064B1A687B681A6000BF1037BD4680BD74
:101700008C01002048010020BC0000208C0000203B
:1017100080B584B000AF786039607B68002B13DA45
:101720007B685B427B60254B9B6F012B1FD1234B5A
:101730004FF0FF329A67FFF783FE0346FB73FB7B94
:10174000184609F03DFC12E07B68002B0FDD1B4BB7
:101750009B6FB3F1FF3F0AD1184B01229A67FFF745
:101760006FFE0346FB73FB7B184609F029FC7A6881
:101770003B681A60124B5B68BB60BB68002B19D1D9
:101780000E4BDA6E0D4BD3F8A4309A4212DA0B4BA3
:10179000DA6E0A4BD3F8A4305B429A420ADD074B5B
:1017A0000022DA66054B00221A67064B00225A60B7
:1017B000FFF71CFE00BF1037BD4680BD8C01002026
:1017C000480100208C00002080B483B000AF786016
:1017D0007B684FF48072DA6000BF0C37BD465DF85D
:1017E000047B704780B483B000AF78607B684FF4AF
:1017F00080729A6000BF0C37BD465DF8047B70476D
:1018000080B483B000AF78607B680122DA6000BFEB
:101810000C37BD465DF8047B704780B483B000AFE1
:1018200078607B6801221A6100BF0C37BD465DF805
:10183000047B704780B483B000AF78607B681B6F17
:101840009BB218460C37BD465DF8047B704780B4E8
:1018500083B000AF78600B467B807A887B681A671C
:1018600000BF0C37BD465DF8047B704780B483B081
:1018700000AF78607B68D3F80031DBB25B11DBB27C
:1018800003F00703DBB218460C37BD465DF8047B56
:10189000704780B483B000AF78607B681B6BDB0857
:1018A000DBB203F00703DBB218460C37BD465DF828
:1018B000047B704780B483B000AF78600B46FB7048
:1018C000FB7803F03F027B685A6300BF0C37BD46CC
:1018D0005DF8047B704780B483B000AF78607B68AC
:1018E00002229A6400BF0C37BD465DF8047B704746
:1018F00080B483B000AF78600B46FB70FB780122A8
:101900009A407B68DA6700BF0C37BD465DF8047B00
:10191000704780B483B000AF78600B46FB707B6883
:101920001A6FFB7822FA03F3DBB203F00103DBB298
:1019300018460C37BD465DF8047B704780B582B011
:1019400000AF0346FB71FB7919460348FFF7B2FF6E
:1019500000BF0837BD4680BD0080024080B500AFA3
:101960000248FFF7B8FF00BF80BD00BF0080024003
:1019700080B582B000AF0548FFF78BFF0346FB71CF
:10198000FB7918460837BD4680BD00BF0080024085
:1019900080B582B000AF0321044806F063F9786097
:1019A0007B6818460837BD4680BD00BF00C20040B6
:1019B00080B582B000AF0548FFF758FF0346FB71C2
:1019C000FB7918460837BD4680BD00BF0080024045
:1019D00080B500AF0A48FFF720FF0A48FFF702FF73
:1019E00000210748FFF733FF0521054806F04CF9B1
:1019F0000448FFF7E9FE0248FFF702FF00BF80BD81
:101A000000C2004000C0004080B582B000AF054871
:101A1000FFF710FF0346FB80FB8818460837BD46DA
:101A200080BD00BF00C2004080B582B000AF034659
:101A3000FB71FB7919460448FFF76BFF0346184614
:101A40000837BD4680BD00BF0080024080B582B02F
:101A500000AF0346FB71FB7919460348FFF748FFC7
:101A600000BF0837BD4680BD0080024080B588B009
:101A700000AF594B9B6FDBB203F00803FB77564B6B
:101A80009B6F5B42BB61BB69DBB203F00803FB7574
:101A900000237B60514B012283F82020FFF788FF51
:101AA0000346BB754E4B5B7C1A46FB7D13444C4A88
:101AB000D35CDB087B754A4B5B7C1A46FB7F134487
:101AC000474AD35CDB083B757A7DBB7D9A4203D0E5
:101AD0003A7DBB7D9A426BD1424B1B78002B2AD1B9
:101AE0003D4B93F86430DBB2022B24D13A4B9B6F11
:101AF0005B423C4AD3603B4BDB68DBB203F008033C
:101B0000FB77384B01221A74BA7DFB7F1344344AA9
:101B1000D35C1846FFF712FFFFF720FFFFF728FFFF
:101B20000346FB74FA7CFB7F13442D4AD35C1846B2
:101B3000FFF704FF35E0284B9B6F5B42264AD367D3
:101B4000BB7D184609F03CFAFFF75EFF03463B8277
:101B5000254B9B6A1B0A03F00F03FB60FFF738FF5E
:101B6000FB68053B214A52F82320398AFB68053B74
:101B700001FA03F31344BB601D4ABB6893613B1D2C
:101B80001946B86809F018FA134BDB6F7A6802FB44
:101B900003F3114AD2F8BC2002FB03F39B120E4A56
:101BA000D366FFF705FF03461A460D4B5A740BE048
:101BB000094B9B6E43F00803074A9366064B0822C5
:101BC00083F8642000F0E8FE0120FFF73FFF00BF2C
:101BD0002037BD4680BD00BF8C01002024010020BD
:101BE000580100206C01002000C2004000000020CD
:101BF000F800002080B586B000AF344B9B6FDBB29D
:101C000003F00803FB75324B5B690133304A5361C3
:101C10002F4B00229A602E4B5B69012B0AD12C4B73
:101C20001B7C002B06D1294B9B6F294AD360284B84
:101C300001221A74264BDB68DBB203F00803FB7544
:101C4000FFF7A6FE3861224B5B69012B25D9204B9B
:101C50001B78002B21D1FFF79BFE38613B699BB2BB
:101C6000FB603B691B0C03F00F03BB60184B5A6809
:101C7000BB68053B174951F82310BB68053BF86862
:101C800000FA03F30B441344114A5360104B5B6991
:101C9000032B02D10E4B01221A70FFF789FE034677
:101CA0001A460D4B5A74FFF763FE0346FB71FA792F
:101CB000FB7D1344084AD35C1846FFF73FFE002023
:101CC000FFF7C4FE00BF1837BD4680BD8C01002061
:101CD0006C010020000000205801002080B483B077
:101CE00000AF78607B68D3F80031DBB25B11DBB208
:101CF00003F00703DBB218460C37BD465DF8047BE2
:101D0000704780B483B000AF78607B681B6BDB08E2
:101D1000DBB203F00703DBB218460C37BD465DF8B3
:101D2000047B704780B483B000AF78600B46FB70D3
:101D3000FB7803F03F027B685A6300BF0C37BD4657
:101D40005DF8047B704780B483B000AF78600B46C9
:101D50007B807A887B685A6400BF0C37BD465DF88B
:101D6000047B704780B483B000AF78607B681B6CE5
:101D70009BB218460C37BD465DF8047B704780B4B3
:101D800083B000AF78607B685B6C9BB218460C3701
:101D9000BD465DF8047B704780B586B000AF7860C3
:101DA0000123FB750321164805F05CFF38613B6990
:101DB00003F48013002B1BD03B691B0C03F00F03B3
:101DC000FB603B699BB23B61FB68053B0D4A52F8E7
:101DD0002320FB68053B396901FA03F313440A4ADF
:101DE0009361094B9A697B681A600023FB7502E0D6
:101DF0007B6800221A60FB7D18461837BD4680BDFF
:101E000000C2004000000020F800002080B582B031
:101E100000AF0346FB80FB8819460348FFF793FF9A
:101E200000BF0837BD4680BD0080024080B582B04B
:101E300000AF0548FFF796FF0346FB80FB88184676
:101E40000837BD4680BD00BF0080024080B582B02B
:101E500000AF0548FFF793FF0346FB80FB88184659
:101E60000837BD4680BD00BF0080024080B582B00B
:101E700000AF0346FB71FB7919460348FFF752FF99
:101E800000BF0837BD4680BD0080024080B582B0EB
:101E900000AF0548FFF735FF0346FB71FB79184695
:101EA0000837BD4680BD00BF0080024080B582B0CB
:101EB00000AF0548FFF712FF0346FB71FB79184698
:101EC0000837BD4680BD00BF0080024080B483B0AB
:101ED00000AF786039607B683A68C03253F82230CE
:101EE0009BB218460C37BD465DF8047B704780B541
:101EF00084B000AF7860396039687868FFF7E6FF32
:101F00000346FB81FB8918461037BD4680BD80B46F
:101F100087B000AFF860B9607A60FA68BB689A422F
:101F200002DDBB687B6108E0FA687B689A4202DAEE
:101F30007B687B6101E0FB687B617B6918461C372D
:101F4000BD465DF8047B704790B583B000AF786004
:101F500039607B681A697B681B68796809690914AC
:101F60003868411A01FB03F3D4187B6899687B68D1
:101F7000DB681A462046FFF7CAFF02467B681A61F3
:101F80007B681B691A147B685A6100BF0C37BD4619
:101F900090BD000080B584B000AF78600521214875
:101FA000FFF7A5FF0346FB601F4B1B68FA68D31AB7
:101FB0001D4A926802FB03F39B13FB60F9681B4800
:101FC000FFF7C2FF194B5B69FB60174B93F820309A
:101FD000012B1CD1144BDB690133134AD361124B23
:101FE000DA69114B9B699A420CD97B68FA681A60CE
:101FF0000D4AFB6813610C4B0022DA610A4B002288
:1020000083F82020084B1A697B681A6005E07B681A
:10201000FA681A60044AFB68136100BF1037BD46B6
:1020200080BD00BF0050004024010020A40000201B
:1020300080B582B000AF214BD3F880315B0903F04B
:102040000103012B35D13B1D1846FFF7A3FF1C4BA5
:10205000DA687B689A4204DB7B6843F6D872934265
:102060000CDD184B9B6E43F00403164A9366154B28
:10207000082283F8642000F08FFC1AE0114BD3F89B
:10208000AC3002330F4AC2F8AC300E4BD3F8AC2060
:102090000C4BD3F8A8309A420BD90A4B9B6E43F0F5
:1020A0000203084A9366074B082283F8642000F075
:1020B00073FC00BF0837BD4680BD00BF0050004024
:1020C000240100208C01002080B483B000AF0346BF
:1020D000FB7197F90730002B0CDBFB7903F01F0233
:1020E000074997F907305B09012000FA02F26033D3
:1020F00041F8232000BF0C37BD465DF8047B7047D4
:1021000000E100E080B483B000AF7860054BDA6C8A
:1021100004497B681343CB6400BF0C37BD465DF8B0
:10212000047B70470040005080B483B000AF7860FB
:102130007B681B6BDB08DBB203F00703DBB21846DE
:102140000C37BD465DF8047B704780B483B000AFA8
:1021500078600B46FB70FB7803F03F027B685A63A4
:1021600000BF0C37BD465DF8047B704780B483B078
:1021700000AF78607B6802229A6400BF0C37BD46CE
:102180005DF8047B704780B483B000AF78600B4685
:10219000FB707B685A6FFB78012101FA03F3DB4384
:1021A0001A407B685A6700BF0C37BD465DF8047B58
:1021B000704780B500AF4FF48070FFF7A3FF00BFFA
:1021C00080BD000080B400AF124B002283F82920AC
:1021D000104B0022DA610F4B00221A600D4B0022D7
:1021E0005A600C4B00229A600A4B0022DA60094BBD
:1021F00000221A61074B00225A61064B5B6A054AAE
:102200009361044B00221A6200BFBD465DF8047B57
:10221000704700BFF800002080B582B000AF0346D1
:10222000FB71FB7919460348FFF78FFF00BF0837A2
:10223000BD4680BD0080024080B500AF0248FFF778
:1022400095FF00BF80BD00BF0080024080B582B016
:1022500000AF0548FFF768FF0346FB71FB7918469E
:102260000837BD4680BD00BF0080024080B582B007
:1022700000AF0346FB71FB7919460348FFF783FF64
:1022800000BF0837BD4680BD0080024080B500AF6A
:1022900000F07AFAFEF7BEFB00223C210E20FEF78A
:1022A00064FF00F002F800BF80BD80B500AF00F011
:1022B00081F800BF80BD000080B500AF0020FFF7AF
:1022C000D5FFFEF7ABFC0346DAB21A4B5A74194B32
:1022D0005B7C184608F074FE4420FFF7F5FE164BB1
:1022E00093F86430DBB2022B06D0FEF769FC0022C3
:1022F0003D214420FEF739FF00223D214520FEF715
:1023000034FF00223E213C20FEF72FFF0A4B93F8BA
:102310006430DBB2012B05D0074B93F86430DBB29D
:10232000022B01D1FFF745FF034B072283F86420FE
:1023300000BF80BD580100208C01002080B582B014
:1023400000AF184B1B68184A1360184B5B68154A9E
:102350005360144B5A68134B1B68D31A124A926F7E
:1023600002FB03F37B607B68002B04DA0D4B1B69D7
:102370000C4A936003E00B4BDB680A4A936008F059
:1023800023FE0B4B9B6A1B0A3B603B680B2B04D95B
:10239000FFF718FF044B0022DA6600BF0837BD467E
:1023A00080BD00BFBC0000208C010020480100203F
:1023B00000C2004080B582B000AF1B4B9B6FDBB208
:1023C00003F00803FB71184B9B6F184AD360FEF7AC
:1023D00025FC0346DAB2164B5A74154B5B7C1A4641
:1023E000FB791344124AD35C1846FFF715FFFFF739
:1023F00023FFFFF72BFF0346BB71BA79FB79134428
:102400000B4AD35C1846FFF707FFFEF7D9FB002203
:102410003D214420FEF7A9FE034B022283F86420ED
:1024200000BF0837BD4680BD8C0100206C01002034
:102430005801002080B500AF00F058F90346012B89
:1024400001D100F003F800BF80BD000080B500AFEF
:102450000020FFF70BFF204BDA68204B9B6F9A425E
:1024600018D11E4BDA6E1C4B9B699A4206DC1B4B43
:10247000DA6E194B9B695B429A4206DA174BDB6EA8
:10248000174A1360FFF718FF23E0FEF70BFAFFF778
:1024900013FF1EE0114BDA6E0F4B9B699A4206DC6C
:1024A0000E4BDA6E0C4B9B695B429A420CDA0B4B7B
:1024B000082283F86420094B9B6E43F08003074A8F
:1024C000936600F069FA04E0FEF7ECF9FFF7F4FE1A
:1024D000FFE700BF80BD00BF6C0100208C01002021
:1024E000BC00002080B400AF064B9B6E002B03D1D4
:1024F000044B002283F8642000BFBD465DF8047BD6
:10250000704700BF8C01002080B483B000AF7860BA
:102510007B681B6BDB08DBB203F00703DBB21846FA
:102520000C37BD465DF8047B704780B483B000AFC4
:1025300078600B46FB70FB7803F03F027B685A63C0
:1025400000BF0C37BD465DF8047B704780B483B094
:1025500000AF78607B6802229A6400BF0C37BD46EA
:102560005DF8047B704780B483B000AF78600B46A1
:102570007B807A887B685A6400BF0C37BD465DF863
:10258000047B704780B483B000AF78607B681B6CBD
:102590009BB218460C37BD465DF8047B704780B48B
:1025A00083B000AF78607B685B6C9BB218460C37D9
:1025B000BD465DF8047B704780B483B000AF78609F
:1025C0007B689B6C43F004027B689A6400BF0C3705
:1025D000BD465DF8047B704780B483B000AF78607F
:1025E0000B46FB707B685A6FFB78012101FA03F3FD
:1025F000DB431A407B685A6700BF0C37BD465DF865
:10260000047B704780B582B000AF0346FB80FB8837
:1026100019460348FFF7A7FF00BF0837BD4680BD36
:102620000080024080B500AF0248FFF7C5FF00BF41
:1026300080BD00BF0080024080B582B000AF054879
:10264000FFF7A0FF0346FB80FB8818460837BD460E
:1026500080BD00BF0080024080B582B000AF054859
:10266000FFF79DFF0346FB80FB8818460837BD46F1
:1026700080BD00BF0080024080B582B000AF03463D
:10268000FB71FB7919460348FFF74FFF00BF08377E
:10269000BD4680BD0080024080B500AF0248FFF714
:1026A00055FF00BF80BD00BF0080024080B582B0F2
:1026B00000AF0548FFF728FF0346FB71FB7918467A
:1026C0000837BD4680BD00BF0080024080B582B0A3
:1026D00000AF0346FB71FB7919460348FFF77CFF07
:1026E00000BF0837BD4680BD0080024080B582B083
:1026F00000AF0023FB71214B1B78012B25D100205B
:10270000FFF7E4FF1D4B5B685A0813465B00134458
:102710005B001A46194B5A60194B5A6A174B5B6893
:10272000B2FBF3F33B60174BD3F8BC303A6802FBC3
:1027300003F39B0A3B60114BDB683A6802FB03F32F
:10274000104AD3660123FB7112E00C4B9B680133E6
:102750000A4A9360094B9A68084BDB699A4207D38F
:10276000084B0022DA660020FFF7B0FF0123FB715F
:10277000FB7918460837BD4680BD00BF6C010020BC
:10278000F80000208C01002080B483B000AF2B4BF8
:102790000022C3F89420294B0022DA66274B00223E
:1027A0001A67264B00225A67244B0022C3F8802068
:1027B000224B0022C3F8AC20214B0022DA61214BCE
:1027C00000221A61204B1B687B601F4B5B683B60DB
:1027D0007B68002B0BD13B68002B03DB174B0122DE
:1027E0009A670FE0154B4FF0FF329A670AE07B685B
:1027F000002B03DD114B01229A6703E00F4B4FF0D2
:10280000FF329A670D4B9B6F0C4AD3670E4B1B68C8
:102810000E4A13600E4B00225A600D4B00221A60C4
:102820000B4B01225A75054B002283F8C32000BFD1
:102830000C37BD465DF8047B704700BF8C0100205B
:1028400024010020A400002048010020BC0000203A
:102850008C00002080B483B000AF314B1B68314A3C
:1028600013600023FB7150E0FB792F4A10335B00AB
:1028700013449B8803F47063B3F5807F0FD1FB7919
:10288000294A10335B0013449A88FB7942F40072A2
:1028900091B2254A5B0013440A469A8032E0FB79E4
:1028A000214A10335B0013449B8803F0F003102B84
:1028B0000FD1FB791C4A10335B0013449A88FB79D3
:1028C00042F0200291B2184A5B0013440A469A80F3
:1028D00018E0FB79144A10335B0013449B8803F023
:1028E0000F03012B0ED1FB790F4A10335B00134409
:1028F0009A88FB7942F0020291B20B4A5B001344C2
:102900000A469A80FB790133FB71FB790F2BABD917
:1029100000BF00BF0C37BD465DF8047B704700BFA9
:1029200048010020BC0000208C01002080B500AFD1
:10293000FEF7BCFCFDF790FF00BF80BD80B582B004
:1029400000AF00237B6002E07B6801337B607B6823
:10295000074A9342F8D9FEF741F8FEF727F9FFF747
:10296000E5FFFFF777FF00BF0837BD4680BD00BF1A
:10297000FEFF070080B500AF064B93F86430DBB272
:10298000002B05D1034B012283F8642008F020FBC3
:1029900000BF80BD8C01002080B500AFFEF732F88B
:1029A000FEF726F9FEF74EF80C4B0022DA660B4BC9
:1029B00000221A67094B00225A67084B9B6E002BB6
:1029C00006D0064B082283F8642008F001FB03E0E0
:1029D000024B002283F8642000BF80BD8C010020E0
:1029E00080B483B000AF7860074BDB6E064AD2F844
:1029F000B02002FB03F3DA137B681A6000BF0C37C8
:102A0000BD465DF8047B70478C0100202DE9B00FB6
:102A100085B000AFF8602A49496FC81739607860FF
:102A20002749D1F8B410C8178A46834679680AFB4B
:102A300001F0396801FB0BF101443868A0FB0A235F
:102A400019440B46104619464FF0000A4FF0000B90
:102A50004FEA411B4BEAD06B4FEA401A50465946A9
:102A6000841A61EB03054FF000004FF00001A9004C
:102A700041EA9471A00004460D4614EB020845EBB0
:102A800003094FF000024FF000034FEAC90343EA85
:102A900058734FEAC80290469946404649464FF05F
:102AA00000024FF00003C20B42EA4142CB13FB6825
:102AB0001A6000BF1437BD46BDE8B00F704700BFB5
:102AC0008C01002080B485B000AF78600223FB73D6
:102AD0007B68B3F5966F0EDC7B6813F5966F0ADBA7
:102AE0007B68DB03074AD2F8B02093FBF2F3064A77
:102AF00053600023FB73FB7B18461437BD465DF81B
:102B0000047B70478C0100204801002080B485B010
:102B100000AF0346FB800223FB73B7F90630002B9E
:102B200004DB064AFB8813820023FB73FB7B1846F9
:102B30001437BD465DF8047B704700BF8C00002051
:102B400080B485B000AF0346FB800223FB73B7F966
:102B50000630002B04DB064AFB8853820023FB73FC
:102B6000FB7B18461437BD465DF8047B704700BFF9
:102B70008C00002080B485B000AF0346FB710223B7
:102B8000FB73FB79642B11D8FA7913469B039B1ACC
:102B90000A4AA2FB03235B09BB60BB68084AD360F7
:102BA000BB685B42064A93600023FB73FB7B1846BD
:102BB0001437BD465DF8047B704700BF1F85EB519D
:102BC0008C00002080B400AF034B00229A6600BF47
:102BD000BD465DF8047B70478C01002080B500AFD6
:102BE0000023114A01214FF47A7006F0F7F90346E9
:102BF0001A460E4B1A6000230D4A0121642006F08C
:102C0000EDF903461A460B4B1A600A4B1B6818462F
:102C100006F082FA054B1B68184606F07DFAFFF7AE
:102C20008DFE00BF80BD00BF752E02081806002073
:102C3000112D02081C06002080B500AFFFF79AFE98
:102C400000BF80BD80B500AFFFF7A6FE00BF80BD0E
:102C500080B582B000AF78607868FFF733FF00BFBF
:102C60000837BD4680BD80B582B000AF0346FB800B
:102C7000FB881846FFF74AFF00BF0837BD4680BDF6
:102C800080B582B000AF0346FB80FB881846FFF793
:102C900057FF00BF0837BD4680BD80B582B000AF8A
:102CA0000346FB71FB791846FFF764FF00BF083746
:102CB000BD4680BD80B500AFFFF784FF00BF80BD7B
:102CC00080B582B000AF0F48FFF7A0FE0E4B1B6926
:102CD000002BB8BF5B427B607B689AB20A4B5A807C
:102CE0000A48FFF77DFE084BDB68002BB8BF5B424C
:102CF0003B603B689AB2044B9A8000BF0837BD46E0
:102D000080BD00BF10060020000600200C06002039
:102D100080B584B000AF78600023FB60FDF77EFFD4
:102D2000F860524B1B68FA689A4200F09080FB688A
:102D3000012B08D14D4B1B68052B04D14C4B9B68D4
:102D400001334B4A9360FB68012B08D1474B1B684A
:102D5000032B04D1464B9B68013B454A9360FB68BB
:102D6000032B08D1414B1B68012B04D1404B9B68BE
:102D700001333F4A9360FB68032B08D13B4B1B6830
:102D8000022B04D13A4B9B68013B394A9360FB68A4
:102D9000022B08D1354B1B68032B04D1344B9B68A5
:102DA0000133334A9360FB68022B08D12F4B1B6819
:102DB000062B04D12E4B9B68013B2D4A9360FB6888
:102DC000062B08D1294B1B68022B04D1284B9B688A
:102DD0000133274A9360FB68062B08D1234B1B68FD
:102DE000042B04D1224B9B68013B214A9360FB6872
:102DF000042B08D11D4B1B68062B04D11C4B9B6870
:102E000001331B4A9360FB68042B08D1174B1B68E6
:102E1000052B04D1164B9B68013B154A9360FB6858
:102E2000052B08D1114B1B68042B04D1104B9B6858
:102E300001330F4A9360FB68052B08D10B4B1B68CD
:102E4000012B04D10A4B9B68013B094A9360074A56
:102E5000FB681360064B9B68002BB8BF5B429AB2BD
:102E6000034B1A8000BF1037BD4680BD20060020EE
:102E70000006002080B582B000AF786008F0A8F8A6
:102E800000BF0837BD4680BD80B483B000AF786016
:102E90000B46FB70FB7801229A407B685A6000BFAA
:102EA0000C37BD465DF8047B704780B483B000AF3B
:102EB00078600B46FB70FB784FF480329A407B6859
:102EC0005A6000BF0C37BD465DF8047B704780B583
:102ED00082B000AF78607B681A687B681B7C1946FB
:102EE0001046FFF7D1FF00BF0837BD4680BD80B553
:102EF00082B000AF78607B681A687B681B7C1946DB
:102F00001046FFF7D2FF00BF0837BD4680BD000066
:102F100080B582B000AF78604FF47A724FF4DC7104
:102F2000074806F02BFC0748FFF7D1FF0648FFF7DC
:102F3000DEFF034806F003FC00BF0837BD4680BD36
:102F40008C02002094B20208ACB3020880B582B0B3
:102F500000AF7860424B9B6C002B34D17B68012B17
:102F600031D1404B1B6801333E4A13603D4B1B6817
:102F7000032B10DD3B4B1B68072B0CDC3A48FFF79B
:102F8000A6FF4FF4FA6240F23E31384806F0F6FBF5
:102F9000364806F0A9FB334B1B68032B0CDC324888
:102FA000FFF795FF4FF4FA6240F217412F4806F001
:102FB000E5FB2E4806F098FB2A4B1B68072B02DD29
:102FC000284B00221A60264B9B6C012B34D17B6866
:102FD000012B31D1234B1B680133224A1360214B53
:102FE0001B68032B10DD1F4B1B68072B0CDC1E48D6
:102FF000FFF76DFF42F2341240F23E311B4806F0FB
:10300000BDFB1A4806F070FB164B1B68032B0CDC4B
:103010001548FFF75CFF42F2341240F217411348A3
:1030200006F0ACFB114806F05FFB0E4B1B68072B4C
:1030300002DD0C4B00221A607B68002B0BD10C4880
:10304000FFF745FF0848FFF752FF084806F077FBF7
:10305000044B00221A6000BF0837BD4680BD00BF88
:103060006407002024060020ACB302088C02002074
:1030700094B2020880B500AF0221044806F0E2FBDA
:103080000348FFF734FF00BF80BD00BF8C02002063
:1030900094B2020880B500AF0021044806F0D2FBCC
:1030A0000348FFF714FF00BF80BD00BF8C02002063
:1030B00094B2020880B483B000AF78600B46FB7016
:1030C000FB7801229A407B685A6000BF0C37BD46EE
:1030D0005DF8047B704780B483B000AF78600B4626
:1030E000FB70FB784FF480329A407B685A6000BFD7
:1030F0000C37BD465DF8047B704780B582B000AFE9
:1031000078607B681A687B681B7C19461046FFF75D
:10311000D1FF00BF0837BD4680BD80B582B000AF8B
:1031200078607B681A687B681B7C19461046FFF73D
:10313000D2FF00BF0837BD4680BD000080B582B019
:1031400000AF78607B68012B18D100230D4A012164
:10315000642005F043FF03461A460B4B1A600A4BE6
:103160001B68184605F0D8FF0848FFF7C6FF084857
:10317000FFF7C3FF0748FFF7C0FF00E000BF0837B5
:10318000BD4680BD8D34020840060020BCB2020856
:1031900010B40208FCB3020880B485B000AFF86038
:1031A000B9607A60124B1B68BA689A4240F051814C
:1031B000BB68032B69D10F4B1A6813469B0013445D
:1031C0005B001A467B68934218DC0B4B00221A60A6
:1031D000094B00225A60084B00229A60064B0022DD
:1031E000DA60054B00221A61034B00225A614CE061
:1031F000440600204806002028060020984B1B6843
:103200000133974A1360FB68B3F17F4F11D1954B9F
:1032100032221A60934B00225A60924B00229A602D
:10322000904B1422DA608F4B00221A618D4B0022E2
:103230005A61FB68B3F57F0F11D18A4B00221A60E7
:10324000884B32225A60874B00229A60854B0022BD
:10325000DA60844B14221A61824B00225A61FB68A7
:1032600013F5803F11D17F4B19221A607D4B192233
:103270005A607C4B00229A607A4B1422DA60794BB8
:1032800014221A61774B00225A61BB68022B40F06E
:103290008680734B1B680133714A1360704B1A6848
:1032A00013469B0013445B001A467B68934241DD42
:1032B000FB68B3F17F4F11D16A4B32221A60694B20
:1032C00000225A60674B00229A60664B1422DA6033
:1032D000644B00221A61634B00225A61FB68B3F50C
:1032E0007F0F11D15F4B00221A605E4B32225A6071
:1032F0005C4B00229A605B4B0022DA60594B14222F
:103300001A61584B00225A61FB6813F5803F11D1B6
:10331000544B19221A60534B19225A60514B002208
:103320009A60504B1422DA604E4B14221A614D4BB6
:1033300000225A614A4B1A6813469B0013445B00F3
:103340001A467B685B009A421BDA454B1A681346A3
:103350009B0013445B001A467B68934211DC414B8F
:1033600000221A603F4B00225A603E4B00229A60B6
:103370003C4B0022DA603B4B00221A61394B0022A1
:103380005A61374B1A6813469B0013445B001A4678
:103390007B685B009A4202DB314B00221A60BB68FB
:1033A000002B11D12F4B00221A602E4B00225A60A5
:1033B0002C4B00229A602B4B0022DA60294B002212
:1033C0001A61284B00225A61BB68012B41D1FB686E
:1033D000B3F17F4F11D1234B32221A60214B0022CF
:1033E0005A60204B00229A601E4B1422DA601D4B5B
:1033F00000221A611B4B00225A61FB68B3F57F0F54
:1034000011D1184B00221A60164B32225A60154B0C
:1034100000229A60134B0022DA60124B14221A61C8
:10342000104B00225A61FB6813F5803F11D10D4B00
:1034300019221A600B4B19225A600A4B00229A601B
:10344000084B1422DA60074B14221A61054B002244
:103450005A61054B1B68BA689A420AD006E000BF61
:10346000480600202806002044060020054B0022C4
:103470001A60054ABB68136000BF1437BD465DF88B
:10348000047B7047480600204406002080B582B0C7
:1034900000AF7860394B1B68632B02DD374B00228D
:1034A0001A60364B1B68002B29D1354B1B68002B4B
:1034B00002D03448FFF721FE314B5B68002B02D06D
:1034C0003148FFF71AFE2E4B9B68002B02D02F4885
:1034D000FFF713FE2A4BDB68002B02D02C48FFF7C6
:1034E0000CFE274B1B69002B02D02A48FFF705FE74
:1034F000234B5B69002B02D02748FFF7FEFD204BD2
:103500001A681E4B1B689A4202DC1E48FFF705FE34
:103510001B4B5A68194B1B689A4202DC1A48FFF78A
:10352000FCFD174B9A68154B1B689A4202DC174842
:10353000FFF7F3FD124BDA68104B1B689A4202DC6E
:103540001348FFF7EAFD0E4B1A690C4B1B689A42B1
:1035500002DC1048FFF7E1FD094B5A69074B1B6875
:103560009A4202DC0C48FFF7D8FD044B1B6801337C
:10357000024A136000BF0837BD4680BD4C060020DC
:103580002806002038B402084CB4020860B40208CF
:1035900074B4020888B402089CB4020880B483B0F2
:1035A00000AF78600B46FB70FB7801229A407B6885
:1035B0005A6000BF0C37BD465DF8047B704780B48D
:1035C00083B000AF78600B46FB70FB784FF480321D
:1035D0009A407B685A6000BF0C37BD465DF8047B9B
:1035E000704780B483B000AF78600B46FB707B6897
:1035F0005A6AFB7822FA03F303F0010318460C37EA
:10360000BD465DF8047B704780B582B000AF78603E
:103610007B681A687B681B7C19461046FFF7BEFF63
:1036200000BF0837BD4680BD80B582B000AF78606E
:103630007B681A687B681B7C19461046FFF7BFFF42
:1036400000BF0837BD4680BD80B582B000AF78604E
:103650007B681A687B681B7C19461046FFF7C1FF20
:10366000034618460837BD4680BD000080B500AF50
:103670000120FFF763FD0020FFF74AFC0B48FFF72E
:10368000C3FF0B48FFF7D0FF0A48FFF7CDFF0A48FA
:10369000FFF7CAFF0948FFF7B7FF41F270724FF416
:1036A000FA61074806F06AF800BF80BDC0B302089F
:1036B000D4B30208E8B30208A8B2020824B402088E
:1036C0006402002080B500AF134806F0E1FD034618
:1036D0001A46124B1A80124806F0DAFD03461A46C3
:1036E0000E4B5A800F4806F0D3FD03461A460B4B8B
:1036F0009A800D48FFF7A8FF0346002B03D0074B25
:103700000022DA8002E0054B0122DA80074806F049
:10371000C5FF00BF80BD00BF480500207406002023
:103720005C0500202005002044B20208DC050020D2
:1037300080B400AF084B1B8803F00403002B03D0B8
:10374000064B01221A6002E0044B00221A6000BFFF
:10375000BD465DF8047B70477406002070060020AB
:1037600080B400AF114B5B68002B0DD0104B1B8851
:1037700003F00803002B03D00E4B00221A6010E068
:103780000C4B01221A600CE0094B1B8803F0080364
:10379000002B03D0074B01221A6002E0054B0022E8
:1037A0001A6000BFBD465DF8047B704764070020C7
:1037B000740600205406002080B500AF1148FFF7C2
:1037C00043FF0346002B03D00F4B00221A6002E098
:1037D0000D4B01221A600C4B1B68002B07D00B4BC2
:1037E0001B68002B03D10A4B01221A6002E0084B30
:1037F00000221A60044B1B681A46044B1A6000BF73
:1038000080BD00BF44B2020860060020840600208C
:103810006406002080B582B000AF0023FB800A4818
:1038200006F036FD0346FB80FB8803F00103002B06
:1038300003D0064B01221A6002E0044B00221A60FA
:1038400000BF0837BD4680BD200500205806002077
:1038500080B582B000AF0023FB800A4806F018FD57
:103860000346FB80FB8803F00203002B03D0064BCA
:1038700001221A6002E0044B00221A6000BF0837E0
:10388000BD4680BD200500205C06002080B400AF4E
:10389000084B1A89074B9B899A4203D3064B012296
:1038A0001A6002E0044B00221A6000BFBD465DF8BA
:1038B000047B7047740600205006002080B582B05B
:1038C00000AF78607B68002B10D0244B1B68002B66
:1038D0000CD141F288324FF4C871214805F04EFFF7
:1038E0001F4805F001FF1F4B01221A601D4B1B688A
:1038F000002B18D01C4B1B6801331B4A13601A4B5A
:103900001B68C72B0FDD174B00221A60164B0022D5
:103910001A6041F64C524FF4C871114805F02EFF61
:103920000F4805F0E1FE7B68002B03D00C4805F042
:10393000DBFE0BE00A4805F002FF0C48FFF774FEBF
:10394000084B00221A60084B00221A60034A7B6869
:10395000136000BF0837BD4680BD00BF8806002049
:10396000640200208C0600209006002020B302088C
:1039700080B582B000AF78607B68002B04D0FF2157
:10398000054806F0B2FC03E00021034806F0ADFC58
:1039900000BF0837BD4680BD3405002080B582B029
:1039A00000AF786039607B681B683968184603F09F
:1039B00015FC00BF0837BD4680BD000080B500AFD4
:1039C000084B9B6803F5807319460748FFF7E6FF2D
:1039D0000649054806F03CFB034806F015FB00BF0E
:1039E00080BD00BF6407002080B50208D00600201B
:1039F00080B483B000AF0023FB710023BB71124B76
:103A00001B78FB71FB7903F00403002B03D00F4BF1
:103A100001221A6002E00D4B00221A600A4B5B790A
:103A2000BB71FB7903F00103002B03D0084B01228B
:103A30001A6002E0064B00221A6000BF0C37BD4638
:103A40005DF8047B704700BF94060020B406002098
:103A5000B006002080B483B000AF00237B600E4B23
:103A60003B603B681B687B600C4B9B689B000122A2
:103A700002FA03F31A467B681340002B03D0084B6D
:103A800001221A6002E0064B00221A6000BF0C37C8
:103A9000BD465DF8047B70479C060020640700204B
:103AA000B806002080B483B000AF00237B60194BC0
:103AB0003B603B681B687B60174B9B689B00012247
:103AC00002FA03F31A467B681340002B03D0134B12
:103AD00001221A6002E0114B00221A60104B3B6079
:103AE0007B68002B0BD10F4B1B68002B07D03B686A
:103AF0001B68002B03D10C4B01221A6003E00A4B18
:103B000000221A6000BF00BF0C37BD465DF8047B81
:103B1000704700BFA406002064070020BC060020F8
:103B20009C060020B0060020C406002080B483B0AC
:103B300000AF0023FB710123FB71654AFB79137011
:103B40000023FB71634B1B68033B092B33D801A295
:103B500052F823F07D3B02089B3B0208913B020890
:103B6000873B0208B73B0208B73B0208B73B020895
:103B7000B73B0208AF3B0208A53B0208FB7943F0C4
:103B80000103FB7117E0FB7943F00203FB7112E0C4
:103B9000FB7943F00403FB710DE0FB7943F008036C
:103BA000FB7108E0FB7943F01003FB7103E0FB7944
:103BB00043F01003FB71484B1B68002B03D0FB79CB
:103BC00043F00103FB71424AFB7953700023FB7100
:103BD000424B1B68002B03D0FB7943F00103FB71C0
:103BE0003C4B1B680A2B03D1FB7943F00203FB71AA
:103BF000374AFB7993700023FB71394B1B68002B0C
:103C000003D0FB7943F00403FB71314AFB79D37095
:103C10000023FB710023FB712E4B1B68042B03D088
:103C20002C4B1B680B2B01D14023FB71294B1B68CC
:103C3000052B0FD0274B1B68062B0BD0254B1B6881
:103C4000072B07D0234B1B680A2B03D0214B1B6883
:103C5000022B01D16023FB711E4B1B68032B01D18A
:103C60000023FB711B4B1B680C2B0BD0194B1B68E3
:103C70000A2B07D0174B1B68162B03D0154B1B685C
:103C8000152B03D1FB7943F00103FB71104AFB793B
:103C90009371144B9B68002B01D18623FB71114B50
:103CA0009B68052B01D18723FB710E4B9B68002B72
:103CB00005D00C4B9B68052B01D09623FB71044A61
:103CC000FB79D37100BF0C37BD465DF8047B7047AC
:103CD000D0060020F80600205406002050060020E0
:103CE0005C0600206407002080B584B000AF354832
:103CF00006F09CF9344B1B680133334A1360324B96
:103D00001B68C72B02D9314B01221A602D4B1B684F
:103D10005B6823F06043802B15D10023FB600DE02E
:103D2000284B1A68FB68134410331978284AFB683B
:103D300013440A461A70FB680133FB60FB68072BCB
:103D4000EEDDFFF755FE1F4B1B685B6823F06043F9
:103D5000812B15D10023BB600DE01A4B1A68BB689C
:103D60001344103319781B4ABB6813440A461A706F
:103D7000BB680133BB60BB68072BEEDDFFF76AFE53
:103D8000104B1B685B6823F06043822B15D1002326
:103D90007B600DE00B4B1A687B6813441033197875
:103DA0000D4A7B6813440A461A707B6801337B60B6
:103DB0007B68072BEEDDFFF775FE00BF1037BD46B1
:103DC00080BD00BF38B50208C8060020AC06002040
:103DD000940600209C060020A406002080B582B036
:103DE00000AF0023FB71114806F020F90F4B1B6850
:103DF0005B6823F06043B3F5101F13D10C4B9B6835
:103E0000022B0FD1094B1B681B7CFB71FB7903F064
:103E10000203002B03D0074B01221A6002E0054B7E
:103E200000221A6000BF0837BD4680BD68B5020891
:103E3000640700206C06002080B582B000AF00232C
:103E4000FB711A4806F0F2F8194B9B68022B0CD84C
:103E5000164B1B685B68C3F31C031A46144B9B6824
:103E600003F540735B039A420BD0114B9B68032B05
:103E700017D10E4B1B685B6823F06043B3F5C10F8D
:103E80000FD10A4B1B681B7CFB71FB7903F0080305
:103E9000002B03D0074B01221A6002E0054B0022E1
:103EA0001A6000BF0837BD4680BD00BF5CB5020880
:103EB000640700206806002080B500AF054806F0C2
:103EC000E6F80346002B02D0024806F0F0F800BFE7
:103ED00080BD00BF98B5020880B483B000AF7860A1
:103EE0000B46FB70FB7801229A407B685A6000BF4A
:103EF0000C37BD465DF8047B704780B483B000AFDB
:103F000078600B46FB70FB784FF480329A407B68F8
:103F10005A6000BF0C37BD465DF8047B704780B423
:103F200083B000AF78600B46FB70FB784FF0011256
:103F30009A407B685A6000BF0C37BD465DF8047B31
:103F4000704780B582B000AF78607B681A687B6884
:103F50001B7C19461046FFF7BFFF00BF0837BD4660
:103F600080BD80B582B000AF78607B681A687B68DE
:103F70001B7C19461046FFF7C0FF00BF0837BD463F
:103F800080BD80B582B000AF78607B681A687B68BE
:103F90001B7C19461046FFF7C2FF00BF0837BD461D
:103FA00080BD80B582B000AF786039607B681B68E7
:103FB0003968184603F012F900BF0837BD4680BDC6
:103FC00080B500AFFFF752FBFEF708FE0023124A50
:103FD000012142F2107005F001F803461A460F4B1A
:103FE0001A600E4B1B68184605F096F800230C4A21
:103FF00001210C4804F0F2FF03461A460A4B1A60EE
:10400000094B1B68184605F087F8084B1B685B4294
:10401000074A136000BF80BD35400208F00600204B
:10402000A150020840420F00F4060020640700205F
:104030005002002080B584B000AF78600023FB60A0
:10404000FFF740FB00F028FFFEF73AFE9A4B9B88F3
:1040500003F00803002B03D0984B01221A6002E002
:10406000964B00221A60964B1B68032B12D1954B7E
:104070001B68002B0ED1944B1B68002B07D1934B70
:104080001B68002B03D1924B1B68002B02D0914B75
:1040900001221A60904B1B68002B0AD08D4B1B68C5
:1040A000002B06D1854B1B68002B02D10120FFF7A6
:1040B0005FFC894B1B68002B06D1864B1B68002BCD
:1040C00002D10020FFF754FC7D4B1B68032B0AD064
:1040D0007B4B1B68002B06D08048FFF732FF8048DF
:1040E000FFF72FFF05E07D48FFF73BFF7C48FFF718
:1040F00038FF784B1B68002B1DD0704B1B68002BC2
:1041000019D1784B1B680133764A1360754B1B68D5
:10411000642B02DC0120FFF72BFC724B1B68642B25
:1041200002DD0020FFF724FC6E4B1B68C72B02DD6D
:104130006C4B00221A60614B1B68002B40F0BB8364
:104140005F4B1B680B2B00F2828301A252F823F015
:1041500081410208DF4102081D420208194302089A
:1041600009440208F1440208F7450208954502088F
:104170004F4802084F480208B9460208E1470208C2
:10418000594B1B680133584A1360584BDB69564A38
:104190001268934213D8544B00221A600120FFF793
:1041A000E7FB534B1B68002B04D0454B03221A60DE
:1041B00000F054BE424B01221A6000F04FBE0020B6
:1041C00001F03CFA002001F013F9002000F08CFF10
:1041D000002200210020FEF7DFFF00F03FBE424B2F
:1041E0001B680133404A1360424B1B68002B08D107
:1041F000414B1B68002B04D1404B1B68002B40F047
:1042000012863F4B1B68002B40F00D862C4B022280
:104210001A60354B00221A6000F005BE4FF47A7226
:1042200002213848FEF7B8FF012000F05DFFF8607A
:10423000FB68012B0ED13448FFF783FE3348FFF7AC
:1042400090FE334805F07BFA324B01221A601C4B7A
:1042500003221A60FB68002B02D10120FEF776FED4
:10426000FB68B3F1FF3F05D1154B15221A60002002
:1042700000F03AFFFB6813F1020F05D1104B162234
:104280001A60002000F030FFFB6813F1030F05D126
:104290000B4B14221A60002000F026FFFB6813F17C
:1042A000040F40F0C285064B01221A60002000F086
:1042B0001BFF00F0BABD00BF74060020C40F002031
:1042C000F8060020C40600205806002068060020DA
:1042D0005C06002000070020B006002048B302085A
:1042E0005CB302080C0700201007002064070020C0
:1042F00054060020C0060020BC060020B4060020A2
:104300006C0600200000FFFF94B20208ACB3020864
:104310008C020020FC0600208B4B1B6801338A4A6C
:104320001360894B1B68C72B01DDFEF78BFC874BA5
:104330001B68002B03D08648FFF713FE02E0844879
:10434000FFF7FFFD804B1B68322B14DD7F4B1B6892
:10435000002B0AD07F4B1B68002B06D000220121C6
:104360004FF47F00FEF718FF0CE000220021002030
:10437000FEF712FF06E04FF4FA7203214FF07F4080
:10438000FEF70AFF0020FEF7E1FD734B1B68002BD0
:1043900013D0704B1B68002B0FD06C4B1B68002B8D
:1043A0000BD06E4B04221A606D4B01221A606D4BCC
:1043B00000221A80644B00221A606B4B1B68002B92
:1043C00007D16A4B1B68002B03D1694B1B68002B7C
:1043D00010D0684B1B68002B0CD05C4B1B68002B6B
:1043E00008D05E4B04221A605E4B00221A80564BA6
:1043F00000221A60604B1B68002B40F01885574B59
:1044000001221A6000F013BD4FF4FA7202214FF43A
:104410007F00FEF7C1FE0020FEF798FD514B1B8880
:1044200001339AB24F4B1A80514B00221A60534B02
:1044300000221A60012001F001F9F860FB68012BED
:1044400005D1414B00221A60444B05221A60FB68DB
:10445000002B0BD14A4B1B680133494A1360484B70
:104460001B68312B02DD464B00221A60FB68B3F15A
:10447000FF3F05D1394B15221A60002001F0DEF80C
:10448000FB6813F1020F05D1344B16221A6000208D
:1044900001F0D4F8FB6813F1030F05D12F4B17225D
:1044A0001A60002001F0CAF8FB6813F1040F05D16F
:1044B000002001F0C3F8294B0B221A60314B1B6816
:1044C000002B0DD1304B1B68002B09D11F4B1B68F3
:1044D000002B40F0AE842D4B1B68002B00F0A9840C
:1044E000002001F0ABF81D4B06221A6000F0A1BCC1
:1044F0000020FEF72BFD002201214FF47F00FEF784
:104500004BFE204B1B68002B0BD11F4B1B68002B55
:1045100007D10E4B1B68002B0FD11C4B1B68002BC7
:104520000BD0094B00221A600C4B06221A60184B64
:1045300000221A800A4B00221A60034B1B680133C9
:10454000014A136000F08ABC10070020B406002066
:1045500070B30208B0060020B8060020F80600205C
:1045600004070020CC060020580600205C0600202E
:1045700000070020C4060020540600200C0700207D
:1045800014070020C0060020BC060020AC06002056
:10459000CE0600204FF4FA7202214FF07F40FEF762
:1045A000FBFD844B1B680133824A1360824B1B68FE
:1045B000002B0BD1814B1B68002B07D1804B1B6854
:1045C000002B13D17F4B1B68002B0FD0794B1B683E
:1045D000012B0BDD774B00221A607B4B06221A6001
:1045E0007A4B00221A807A4B00221A600120FEF7D3
:1045F000ADFC00F033BC4FF4FA7202214FF07F4063
:10460000FEF7CAFD714B1B8801339AB26F4B1A80BB
:10461000012000F0EDFEF860FB68012B08D16A4B29
:1046200003221A60634B00221A60694B00221A6051
:10463000FB68002B02D10120FEF788FCFB68B3F178
:10464000FF3F05D1604B15221A60002000F0D0FE1C
:10465000FB6813F1020F05D15B4B16221A60002094
:1046600000F0C6FEFB6813F1030F05D1564B17226D
:104670001A60002000F0BCFEFB6813F1040F05D1A6
:10468000002000F0B5FE504B0A221A60514B1B6807
:10469000002B00F0D083504B1B68002B00F0CB8325
:1046A000474B1B68002B00F0C683002000F0A0FEE3
:1046B000454B04221A60BEE33E4B1B6801333D4A62
:1046C0001360464B1B680133444A1360434B1B681D
:1046D000312B6BDD012001F0E7F9F8604FF4FA723D
:1046E00002214FF07F40FEF757FDFB68012B08D1F8
:1046F000354B07221A60394B00221A60344B0022D6
:104700001A60FB68002B02D10120FEF71FFCFB683A
:10471000B3F1FF3F08D1314B00221A602A4B15221A
:104720001A60002001F0C0F9FB6813F1020F08D1F4
:104730002A4B00221A60244B16221A60002001F036
:10474000B3F9FB6813F1030F08D1244B00221A6060
:104750001D4B17221A60002001F0A6F9FB6813F127
:10476000040F08D11D4B00221A60002001F09CF9B3
:10477000154B0B221A60104B1B68002B0CD10F4BF2
:104780001B68002B03D0154B1B68952B04DC0C4BCE
:104790001B68002B40F05183002001F085F90A4B83
:1047A00006221A600D4B00221A6046E3FEF74AFA11
:1047B00043E300BF10070020C0060020BC06002015
:1047C000B4060020AC060020F8060020CE0600202B
:1047D00014070020B8060020B006002018070020AB
:1047E000934B1B680133924A1360FEF72BFA0020AB
:1047F000FEF7ACFB642201214FF47F00FEF7CCFCF6
:104800008C4B1B68002B07D18B4B1B68002B03D1F3
:104810008A4B1B68002B09D1894B1B68002B05D1E3
:10482000884B06221A60824B00221A60864B1B6856
:10483000002B00F00483854B1B68002B00F0FF82E7
:10484000804B04221A607A4B00221A60F7E2784B00
:104850001B680133764A13600020FEF777FBFEF7F2
:10486000F1F9C82202214FF07F40FEF795FC714B11
:104870001B68002B0BD1704B1B68002B07D16F4BB3
:104880001B68002B06D1724B1B68002B02D06D4BAE
:1048900006221A606C4B1B68002B00F0D2826B4B17
:1048A0001B68002B00F0CD82664B04221A60694B16
:1048B00000221A60C5E2684B1B68002B0BD0674BC7
:1048C00001221A605F4B00221A600020FFF750F8A7
:1048D000574B00221A60624B1B68002B05D1614BBD
:1048E0009B8803F00403002B08D05C4B00221A6065
:1048F0005D4B00221A600120FFF73AF8574B1B6806
:10490000002B4ED0584B1B68042B51D801A252F8F3
:1049100023F000BF29490208354902084F4902081F
:10492000734902088D4902084F4B1B6801334E4AF8
:1049300013603DE0484B1B68002B04D04A4B1B68BA
:104940000133494A13600020FEF700FB30E0474B7B
:104950001B680133454A1360444B1B68002B22DD62
:10496000414B1B680133404A1360404B00221A60E0
:1049700019E00120FEF7A2FF374B1B68002B14D073
:10498000394B1B680133384A13600EE00020FEF7F4
:1049900095FF314B1B68002B09D0334B02221A6064
:1049A00005E000BF04E000BF02E000BF00E000BF80
:1049B0002A4B1B68002B40F046820120FEF7D8FFEF
:1049C000204B1B68062B00F20F8201A252F823F045
:1049D000ED490208754A0208B54A0208754B0208FB
:1049E000DF4B02089D4C02082D4D0208104B1B683E
:1049F00001330F4A13601E4BDB690D4A1268934264
:104A000006D80B4B00221A600E4B01221A6025E2D9
:104A1000002000F013FE002000F0EAFC002000F06F
:104A200063FB002200210020FEF7B6FB16E200BF68
:104A300010070020C0060020BC060020B40600209D
:104A40006C060020F8060020B8060020B006002002
:104A5000AC06002014070020640600201C0700207C
:104A600058060020740600202007002018070020A8
:104A700064070020A14B1B680133A04A1360A04BC0
:104A80001B68002B05D09F4B02221A609B4B002213
:104A90001A609D4B9B8803F00403002B00F0D58126
:104AA000984B02221A60954B00221A60974B012204
:104AB0001A60CAE14FF47A7202219548FEF76CFB46
:104AC000012000F011FBF860FB68012B0ED191482A
:104AD000FFF747FA9048FFF734FA904B01221A602B
:104AE000884B03221A60894B00221A60FB68002B56
:104AF00011D18B4B1B680133894A1360884B1B68AB
:104B0000312B05DD8348FFF73CFA854B00221A6004
:104B10000120FEF71BFAFB68B3F1FF3F0BD1794B85
:104B200015221A607B48FFF71CFA7B48FFF719FA39
:104B3000002000F0D9FAFB6813F1020F08D1754884
:104B4000FFF70FFA6F4B16221A60002000F0CCFA24
:104B5000FB6813F1030F40F07A816E48FFF701FA0A
:104B60006D48FFF7FEF9674B14221A60002000F031
:104B7000BBFA6CE1614B1B680133604A13605F4B09
:104B80001B68C72B01DDFEF75DF80020FEF7DEF99C
:104B90005B4B1B68002B08D05A4B04221A60614BF8
:104BA00000221A80554B00221A60574B9B8803F055
:104BB0000403002B0BD0534B04221A60594B0022E4
:104BC0001A804E4B00221A60504B01221A604FF49B
:104BD0007A7203214FF07F40FEF7DEFA3EE14FF498
:104BE000FA7202214FF47F00FEF7D6FA4D4B1B8874
:104BF00001339AB24B4B1A800020FEF7A7F901202F
:104C000000F01CFDF860FB68012B0BD13D4B052229
:104C10001A603E4B00221A603E48FFF7A2F93E4858
:104C2000FFF78FF9FB68002B0ED13D4B1B6801335A
:104C30003B4A13603A4B1B68312B05DD3548FFF7C3
:104C4000A0F9374B00221A60FB68B3F1FF3F05D192
:104C50002C4B15221A60002000F0F0FCFB6813F1C9
:104C6000020F05D1274B16221A60002000F0E6FC47
:104C7000FB6813F1030F05D1224B17221A600020A5
:104C800000F0DCFCFB6813F1040F40F0E280002030
:104C900000F0D4FC1B4B06221A60DAE0002201214E
:104CA0004FF47F00FEF778FA0020FEF74FF9134B20
:104CB0001B680133114A1360114B1B68002B08D08D
:104CC000104B06221A60184B00221A800B4B002250
:104CD0001A600D4B9B8803F00403002B00F0BB808F
:104CE000084B06221A60104B00221A80034B002248
:104CF0001A60064B01221A60ADE000BF10070020C9
:104D000058060020F806002074060020080700203E
:104D10000000FFFF6CB2020858B20208FC06002037
:104D200014070020CC060020CE0600204FF4FA72B3
:104D300002214FF07F40FEF72FFA4E4B1B880133C4
:104D40009AB24C4B1A80012000F052FBF860FB68CD
:104D5000012B0BD14848FFF704F94848FFF7F1F859
:104D6000474B03221A60474B00221A60FB68002B56
:104D700011D1454B1B680133434A1360424B1B68FA
:104D8000312B05DD3C48FFF7FCF83F4B00221A6051
:104D90000120FEF7DBF8FB68B3F1FF3F05D1384B8C
:104DA00015221A60002000F023FBFB6813F1020FAC
:104DB00005D1334B16221A60002000F019FBFB6866
:104DC00013F1030F05D12E4B17221A60002000F0BB
:104DD0000FFBFB6813F1040F3FD1002000F008FB2C
:104DE000274B04221A6038E0274B1B680133264A00
:104DF0001360254B1B68092B05DD2448FFF7C1F81C
:104E0000214B00221A600120FEF7A0F80020FEF7D7
:104E1000AFFD0020FEF752FDC82202214FF07F4077
:104E2000FEF7BAF91AE000BF18E000BF16E000BFB5
:104E300014E000BF12E000BF10E000BF0EE000BFB2
:104E40000CE000BF0AE000BF08E000BF06E000BFC2
:104E500004E000BF02E000BF00E000BF00F048F83F
:104E600000F02AF80A4B1B680A4A136000BF10378B
:104E7000BD4680BDCE0600206CB2020858B20208C2
:104E8000F8060020080700201407002080B202085E
:104E9000B00600202407002080B500AFFEF760FCBC
:104EA000FEF7B8FCFEF788FCFEF7F0FCFEF740FCCE
:104EB000FEF7CEFC00BF80BD80B500AF0A4B1B687B
:104EC0000133094A1360084B1B68092B03DC074BAD
:104ED0001B68002B06D0FEF729FE034B00221A6048
:104EE000FEF76CFD00BF80BD280700205C06002097
:104EF00080B582B000AF554B1B68042B13D0534BC9
:104F00001B68062B0FD0514B1B680A2B0BD04F4B45
:104F10001B680B2B07D04D4B1B68022B03D04C4B4F
:104F20001B68002B2ED04B4B7B604B4B5A887B6809
:104F30001A804A4B7B60484B9A887B681A80484BA2
:104F40007B60454B1A887B681A80464B1B689BB276
:104F50001A46920013441A4691001A460B4613440F
:104F60009B007B80404B7B607B687A881A80642141
:104F70003E48FFF716F837493C4805F069F83B48CA
:104F800005F042F83A4B1B88DAB23A4B1A70384BAC
:104F90005B88DAB2374B5A70354B9B88DAB2354BA7
:104FA0009A70334BDB88DAB2324BDA70324B7B606B
:104FB0002F4B1A897B681A80304B7B602C4B9A8967
:104FC0007B681A8066212E48FEF7EBFF29492C48A2
:104FD00005F03EF82A4805F017F82A4B1B882A4AA4
:104FE000A2FB0323DB087B807B887B70274A7B78CE
:104FF0001370274B1B88244AA2FB0323DB087B800A
:105000007B887B70214A7B785370224B7B60184BE6
:105010009A897B681A8065211F48FEF7C2FF1B49E9
:105020001D4805F015F81C4804F0EEFF1B4B1B68EB
:1050300001331A4A1360194B1B68092B02DD174B09
:1050400000221A6000BF0837BD4680BDF806002068
:10505000C40F0020D806002000060020DA06002039
:10506000DC06002054060020DE06002078B6020888
:1050700074060020E8060020EC060020EE06002062
:1050800090B60208CC060020CDCCCCCCE0060020A7
:10509000CE060020E206002084B602082C0700207D
:1050A00080B584B000AF78600C4B1B6801330B4AAD
:1050B00013600A4B1B68B3F5967F0BDB084B1B682C
:1050C000032B07D1074800F06EFE0346FB73034B2A
:1050D00000221A6000BF1037BD4680BD3007002097
:1050E000F80600206407002080B584B000AF786027
:1050F0000023FB60A04B1B6801339F4A13609E4B4B
:105100001B68B3F5FA6F0DDBFDF79CFD9B4B00228E
:105110001A60994B00221A60994B00221A604FF0D6
:10512000FF335AE1974B5B8840F2DB5293420DD933
:10513000FDF788FD914B00221A608F4B00221A6008
:105140008F4B00221A606FF0010346E17B68002B51
:105150000CD1FDF777FD894B00221A60864B0022A7
:105160001A60874B00221A60002336E1834B1B68CC
:10517000052B00F22B8101A252F823F09551020871
:10518000D1510208EF510208535202081753020886
:105190009D530208FDF78EFD2820FDF77EFD4FF49C
:1051A000FA70FDF760FD0A20FDF76AFD764B1B687B
:1051B000962202FB03F31846FDF74AFDFDF73CFD7E
:1051C0006E4B1B6801336D4A13600023FB6003E1E3
:1051D0006C4B5B88C72B40F2FC80FDF733FD674BBF
:1051E0001B680133654A13600023FB60F1E0012076
:1051F000FEF764FB624B1B680133614A1360604B2E
:105200001B68132B16DDFDF755FD3C20FDF745FD12
:105210004FF4FA70FDF727FD0520FDF731FD5A4BDD
:105220001B684FF4967202FB03F31846FDF710FD5E
:10523000FDF702FD524B1B68162B07DD504B002279
:105240001A604E4B1B6801334C4A13600023FB600D
:10525000C2E04C4B5B88B3F5FA6F07D34B4B1B682E
:10526000002B03D14A4B1B68002B03D0494B1B6812
:10527000002B08D00120FEF721FBFDF7E3FC6FF0C7
:105280000303FB6001E00023FB60414B1B68002B24
:1052900008D13E4B1B68002B04D03A4B5B88B3F51A
:1052A000967F18D23A4B1B68002B04D0354B5B8895
:1052B000B3F5967F0FD2364B1B68002B00F08B8026
:1052C000304B5B88B3F5967FC0F08580324B1B680E
:1052D000002B00F080800020FEF7F0FA4FF496706B
:1052E000FDF7C1FC0A20FDF7CBFC1420FDF7D5FC2F
:1052F000254B1A6813469B0013441846FDF7A8FC7B
:10530000FDF79AFC1D4B1B6801331C4A13601C4BB4
:1053100000221A605FE00020FEF7D0FA184B1B68ED
:105320000133174A1360164B1B68132B21DD154BF5
:1053300000229A600520FDF7B0FC6420FDF793FC85
:105340000120FDF79DFC104B1A6813469B00134487
:105350001846FDF77DFC0023FB60094B00221A6014
:10536000054B00221A60054B1B680133034A13608A
:1053700032E00023FB602FE03407002038070020D4
:105380003C0700200006002064070020540600208F
:10539000C40F00205006002008070020114B1B6896
:1053A0000133104A13600F4B1B68042B0BDD0D4BB0
:1053B00000221A600123FB600B4B00221A600B4B8A
:1053C00000221A6008E00023FB6005E06FF0020392
:1053D00003E000BF00E000BFFB6818461037BD4681
:1053E00080BD00BF3C0700203407002038070020A4
:1053F00080B584B000AF78600023FB60894B1B68E8
:105400000133884A1360874B1B68B3F57A7F0DDB45
:10541000FDF718FC844B00221A60824B00221A60B0
:10542000824B00221A604FF0FF33F6E0804B5B881E
:1054300040F6B73293420DD9FDF704FC7A4B0022B7
:105440001A60784B00221A60784B00221A606FF0C5
:105450000103E2E07B68002B0CD1FDF7F3FB724BFC
:1054600000221A606F4B00221A60704B00221A60F3
:105470000023D2E06C4B1B68022B00F09D80022BB6
:1054800000F3C680002B02D0012B2AD0C0E00120FF
:10549000FEF714FA654B1B680133644A1360634BD3
:1054A0001B68042B1ADD614B00221A605E4B01223F
:1054B0001A605020FDF7F1FB4FF47A70FDF7D3FB33
:1054C0000A20FDF7DDFB5B4B1B684FF4966202FB85
:1054D00003F31846FDF7BCFBFDF7AEFB0023FB60B2
:1054E0009AE0534B1B8840F22622934210D8504B2F
:1054F0001B88782B0CD94F4B1B684FF4967202FB1C
:1055000003F31846FDF7A4FBFDF796FB0023FB60B1
:10551000474B1B88782B16D8454B1B88142B12D968
:105520004FF4FA70FDF79FFB0520FDF7A9FB414BF7
:105530001B68962202FB03F31846FDF789FBFDF773
:105540007BFB0023FB603A4B5B88B3F5FA6F03D318
:10555000374B1B88022B03D8374B1B68002B08D016
:105560000120FEF7ABF9FDF76DFB6FF00303FB6065
:1055700001E00023FB602E4B1B88022B4BD8002040
:10558000FEF79CF96420FDF76EFB0120FDF778FB28
:10559000284B1A6813469B0013449B001846FDF7DE
:1055A00057FBFDF749FB204B02221A600023FB60EA
:1055B0001E4B00221A602EE00020FEF77FF91B4BE5
:1055C0001B680133194A1360184B1B68272B1CDD1D
:1055D0000520FDF762FB6420FDF745FB0120FDF788
:1055E0004FFB144B1A6813469B0013441846FDF7F3
:1055F0002FFB0D4B00221A600C4B00221A60012376
:10560000FB60084B00221A6006E00023FB6003E009
:105610006FF0020301E000BFFB6818461037BD467B
:1056200080BD00BF4007002044070020480700203D
:1056300000060020640700205006002080B584B0DA
:1056400000AF78600023FB60A44B1B680133A34AC2
:105650001360A24B1B68B3F5FA6F0DDBFDF7F2FA8E
:105660009F4B00221A609D4B00221A609D4B002226
:105670001A604FF0FF3304E29B4B5B8840F6B73271
:1056800093420DD9FDF7DEFA954B00221A60934B39
:1056900000221A60934B00221A606FF00103F0E1C0
:1056A0007B68002B0CD1FDF7CDFA8D4B00221A60E0
:1056B0008C4B00221A60894B00221A600023E0E123
:1056C000874B1B68042B00F2D78101A252F823F00C
:1056D000E556020889570208CD5902080B5A0208FC
:1056E0003F5A02080120FEF7E9F87E4B1B680133A0
:1056F0007C4A13607B4B1B680A2B01DCFDF7A2FA86
:10570000784B1B680A2B19DD764B1B68142B15DCB4
:105710005020FDF7C2FAFDF7CDFA4FF4FA70FDF70D
:10572000A2FA0520FDF7ACFA704B1B68322202FB8F
:1057300003F31846FDF78CFAFDF77EFA694B1B68F8
:10574000142B1EDD5020FDF7A8FAFDF7B3FA4FF435
:10575000FA70FDF788FA0520FDF792FA644B1B6892
:10576000C82202FB03F31846FDF772FAFDF764FA4C
:105770005B4B01221A605B4B00221A600120FEF78E
:105780009DF80023FB607BE1584B5B6A002B00F027
:10579000B180554B1B88632B1ED9534B1B881A466F
:1057A000524B5B6AA3F5FA739A4215D2FDF782FA5F
:1057B0000120FEF783F8C820FDF755FA0520FDF714
:1057C0005FFA4B4B1B684FF47A7202FB03F31846E7
:1057D000FDF73EFAFDF730FA434B1B881A46434B60
:1057E0005B6AA3F276239A4218D33F4B1B881A4672
:1057F0003E4B5B6AC83B9A4210D2C820FDF733FA91
:105800000520FDF73DFA3A4B1B684FF4C87202FBC6
:1058100003F31846FDF71CFA0023FB60324B1B888C
:105820001A46324B5B6A783B9A4214D3C820FDF784
:105830001AFA0520FDF724FA2D4B1B68962202FB6D
:1058400003F31846FDF704FAFDF7F6F9244B02229C
:105850001A600023FB60244B5B8840F6C31293421E
:105860000DD9214B1B881A46204B5B6AA3F5FA73AE
:105870009A4204D21C4B1B88B3F5FA7F22D21A4BF2
:105880005B88B3F5FA6F10D3174B1B881A46174B7A
:105890005B6A643B9A4208D2134B1B881A46134B2F
:1058A0005B6AA3F5FA739A420CD20F4B1B881A4617
:1058B0000E4B5B6A643B9A420DD30B4B5B88B3F58E
:1058C0007A7F08D30120FDF7F9FFFDF7BBF96FF0F0
:1058D0000303FB60D3E00023FB60D0E04C07002013
:1058E0005007002054070020000600206407002015
:1058F00050020020654B1B88632B18D9FDF7DAF99D
:105900000120FDF7DBFF4FF47A70FDF7ACF90A20B8
:10591000FDF7B6F95E4B1B684FF4167202FB03F3FA
:105920001846FDF795F9FDF787F90023FB60574B03
:105930001B8840F24B42934212D94FF4FA60FDF7B4
:1059400092F90A20FDF79CF9514B1B68642202FB77
:1059500003F31846FDF77CF9FDF76EF90023FB60B1
:105960004A4B1B8840F21352934219D9474B5B882C
:10597000632B15D9474B1B68002B11D1FDF762F93A
:10598000424B1B881A46444B5A62434800F00BFABC
:10599000414800F0FBF9414B03221A600023FB60F1
:1059A0003A4B1B8840F21352934268D9374B5B88BD
:1059B000632B64D9374B1B68002B60D0FDF742F98D
:1059C000364B03221A600023FB6058E02F4B1B88E4
:1059D0001A46314B5B6A053B9A4213D34FF4C870A9
:1059E000FDF741F90A20FDF74BF9294B1A681346D8
:1059F0009B0013441846FDF72BF9FDF71DF9274BC3
:105A000003221A600023FB603AE0254B1B68013338
:105A1000234A1360224B1B68002B0DDD0020FDF78D
:105A20004DFFFDF70FF91D4B04221A601C4B00229D
:105A30001A600023FB6023E00023FB6020E0184B8A
:105A40001B680133164A1360154B1B68092B10DDC8
:105A50000020FDF733FFFDF7F5F8104B00221A6028
:105A60000F4B00221A600123FB600E4B00221A60CC
:105A700006E00023FB6003E06FF0020301E000BFDB
:105A8000FB6818461037BD4680BD00BF00060020E9
:105A900050020020C40F002064070020500700209F
:105AA000540700204C07002080B584B000AF786018
:105AB0000023FB60AA4B1B680133A94A1360A84B63
:105AC0001B68B3F57A7F0DDBFDF7BCF8A54B002210
:105AD0001A60A34B00221A60A34B00221A604FF0F9
